S013000044656C74614472697665722E73726563BB
S113000065C0000083C0000081C000007FC0000004
S11300107DC000007BC0000079C0000077C00000F4
S113002075C0000073C0000071C000006FC0000004
S11300306DC000006BC0000069C0000067C0000014
S113004065C0000063C0000061C000005FC0000024
S11300505DC000005BC0000059C0000057C0000034
S113006055C0000023C4000051C000004FC0000070
S11300704DC000004BC0000049C0000047C0000054
S113008045C0000043C0000041C000003FC0000064
S113009012C500003BC0000039C0000037C000009A
S11300A035C0000033C0000031C000002FC0000084
S11300B02DC000002BC0000029C0000027C0000094
S11300C025C0000023C0000021C0000011241FBE71
S11300D0CFEFD1E2DEBFCDBF00E00CBF1AE1A0E05C
S11300E0B2E0E4E1F6E200E00BBF02C007900D923B
S11300F0A433B107D9F72CE1A4E3BAE101C01D92FE
S1130100A03CB207E1F70AD70C94081379CF809189
S113011000029091010208958093361A0895809305
S1130120381A0895FC01EC5CF54E658308958093BC
S1130130371A089520E030E09091D81A982311F0EE
S113014021E030E0C90108958091D71A90E0089524
S1130150FC01EC52F54E858190E00895362F20E0A5
S1130160280F391FC9010895282F30E0C9010895C7
S11301708070892F90E008950F931F93CF93DF939E
S113018080911C1B90911D1B892B09F4B8C0809190
S1130190361A8E3F09F4A9C08091000290910102A1
S11301A0892B29F410921B1B86E080931A1B8091E3
S11301B01B1B90E060911A1B70E0681B790B8C523A
S11301C0954E49D390911B1B980F90931B1B8091C4
S11301D01A1B981718F44AD2019771F070911B1BDF
S11301E0472F50E0DA0111978A010250104060E075
S11301F0ED01CC52D54E18C080911B1B882309F009
S113020071C086E090E073C0F901EC52F54E808134
S11302108F3F19F481818F3F61F02017310719F462
S113022088818F3F31F06F5F262F30E02A173B071C
S11302305CF36623A1F090E0421B530B08C0EC5220
S1130240F54EDF01A20FB31F8C9180839F5FE92FCE
S1130250F0E0E417F5079CF3761B70931B1B2091C9
S11302601B1B80911A1B281728F19091361A809134
S1130270D61A9817B9F56091D71A6C5F60931A1B58
S1130280261788F4822F90E070E0681B790B8C525B
S1130290954EE1D290911B1B980F90931B1B80915C
S11302A01A1B981738F08091D71AA82FB0E020E0D5
S11302B090E00CC085E090E09093010280930002EE
S11302C01EC0EC52F54E8281980F2F5FE22FF0E0B2
S11302D0AE17BF07B4F7AC52B54E909513968C91F8
S11302E0891719F087E090E002C081E090E09093D4
S11302F001028093000210921D1B10921C1BDF91BF
S1130300CF911F910F9108951F9380911C1B909181
S11303101D1B019709F45DC081E090E090931D1BC3
S113032080931C1B8091371A893940F49091381AB4
S1130330892F8150863028F0933819F084E090E0BA
S11303402FC08FEF8093341A8093351A8091371A17
S1130350A82FB0E020E090E005C0EC5CF54E82816F
S1130360980F2F5FE22FF0E0AE17BF07B4F7AC5C35
S1130370B54E909513969C93809100029091010242
S11303800697029708F438D11091371A1C5F84E35A
S11303909AE1612F70E035D1181759F082E090E0AE
S11303A0909301028093000210921D1B10921C1B5B
S11303B010C08091381A823029F480913A1A90E062
S11303C0069602C086E090E040D11092010210929D
S11303D000021F91089598DF80910002909101021C
S11303E0892B39F4C9DE80910002909101020597AE
S11303F0C9F30895282F80911C1B90911D1B892BF4
S113040091F42093361A83E08093381A6093391A52
S1130410CA0140933A1A807090933B1A85E0809306
S1130420371AD9CF0895FFCF282F80911C1B9091A4
S11304301D1B892BB1F42093361A82E08093381A5D
S11304406093391A80933A1A84E08093371AC3DF91
S11304503091DA1A20E08091D91A280F311DC90190
S11304600895FFCF282F80911C1B90911D1B892B71
S113047071F42093361A83E08093381A6093391A02
S113048040933A1A84E08093371AA5CF0895FFCF9A
S1130490282F80911C1B90911D1B892B91F4209374
S11304A0361A82E08093381A6093391A81E0809377
S11304B03A1A84E08093371A8EDF8091D91A90E03B
S11304C00895FFCF282F80911C1B90911D1B892B11
S11304D051F42093361A81E08093381A82E0809395
S11304E0371A79CF0895FFCF86C008950F931F93CD
S11304F08C016F5F7F4F882777FD8095982F0E942E
S1130500F00F9B01AC0160E074E284EF99E40E9477
S1130510550FAB01BC01C80115D0892B19F420E09B
S113052030E00CC081E090E09093010280930002DF
S113053010921D1B10921C1B21E030E0C9011F9179
S11305400F910895EF92FF920F931F937A018B01FD
S113055082E48093C00088E98093C10086E08093A0
S1130560C20060E074E284EF99E4A80197010E945C
S1130570550F0E94C20F615070407093C500609384
S1130580C40060E074E284E799E4A80197010E9442
S1130590550F20E030E040E451E40E94A410609341
S11305A0AE1C7093AF1C8093B01C9093B11C20912F
S11305B0AE1C3091AF1C4091B01C5091B11C60E056
S11305C070E08AE793E40E94550F0E94C20F709373
S11305D0AD1C6093AC1C7298739A8FEF8093C60025
S11305E010921E1C10921F1C81E090E01F910F912D
S11305F0FF90EF900895089580911F1C80931E1C16
S11306000895AC01F8947398729A20E030E011C018
S11306108091C00085FFFCCF8091C00080648093EE
S1130620C000FA01E20FF31F80818093C6002F5FA0
S11306303F4F2617370764F38091C00086FFFCCF35
S11306407298739A7894C90108951092B51C109207
S1130650B41C2091AC1C3091AD1C265F3F4F280F79
S1130660391F3093B31C2093B21C0895AF92BF92EC
S1130670CF92DF92EF92FF920F931F938091B41C5D
S11306809091B51C01969093B51C8093B41C209155
S1130690B41C3091B51C8091B21C9091B31C82178C
S11306A0930718F421E030E074C0A090AE1CB09021
S11306B0AF1CC090B01CD090B11CC601B5012BEA90
S11306C03AEA4AEA50E40E94A4107B018C0120E03B
S11306D030E040E85FE30E94510F882314F461E0A6
S11306E054C0C801B70120E030E04FE753E40E9452
S11306F0A01018160CF045C0C601B50120E030E08A
S11307004AE754E40E94550F5B016C0120E030E09D
S11307104AE755E40E94A4107B018C0120E030E0FC
S113072040E85FE30E94510F88231CF461E070E00D
S113073024C0C801B70120E03FEF4FE757E40E940F
S1130740A0101816B4F4C601B50120E030E040E270
S113075051E40E94A4100E94C20F80E991E005C0F8
S1130760FC013197F1F76150704061157105C1F7D3
S11307700EC0C801B7010E94C20FCB010197F1F767
S113078006C0C801B7010E94C20F6A95F1F720E0C4
S113079030E0C9011F910F91FF90EF90DF90CF904F
S11307A0BF90AF90089590911E1C80911F1C9817C4
S11307B019F420E030E017C090911E1C80911F1C9A
S11307C0981738F480911F1C90911E1C282F30E03C
S11307D008C080911F1C90911E1C282F30E02050CF
S11307E03F4F291B3109C90108951F93182FDBDFDF
S11307F08F3F910591F0E0911F1CF0E0E25EF44E12
S1130800108380911F1C8F3F19F410921F1C05C088
S113081080911F1C8F5F80931F1C1F9108959091DE
S11308201E1C80911F1C981711F4EFEF12C0E09169
S11308301E1CF0E0E25EF44EE08180911E1C8F3FAE
S113084019F410921E1C05C080911E1C8F5F8093AA
S11308501E1C8E2F0895EF92FF920F931F93CF9338
S1130860DF937C01EB0190911E1C80911F1C981753
S113087019F400E010E012C096DF8C01C817D90704
S11308800CF48E01C0E0D0E006C0C9DFF701EC0F24
S1130890FD1F80832196C017D107BCF3C801DF91E7
S11308A0CF911F910F91FF90EF9008951F920F9297
S11308B00FB60F920BB60F9211242F933F934F93C1
S11308C05F936F937F938F939F93AF93BF93EF93B4
S11308D0FF938091C60089DFFF91EF91BF91AF91A3
S11308E09F918F917F916F915F914F913F912F9144
S11308F00F900BBE0F900FBE0F901F901895AC0178
S113090020E030E00CC08091C80085FFFCCFFA01E4
S1130910E20FF31F80818093CE002F5F3F4F261795
S113092037078CF30895DC019091A01C8091A11CE1
S1130930981711F480E008959091A01C8091A11C57
S1130940981719F420E030E017C09091A01C809112
S1130950A11C981738F48091A11C9091A01C282FF9
S113096030E008C08091A11C9091A01C282F30E099
S113097020583F4F291B3109A901621773070CF452
S1130980AB0120E030E020C09091A01C8091A11C1C
S1130990981711F49FEF12C0E091A01CF0E0E05E04
S11309A0F34E90818091A01C8F3719F41092A01CF3
S11309B005C08091A01C8F5F8093A01CFD01E20FF5
S11309C0F31F90832F5F3F4F24173507ECF2842FDA
S11309D008959091A01C8091A11C981719F420E00F
S11309E030E017C09091A01C8091A11C981738F496
S11309F08091A11C9091A01C282F30E008C0809108
S1130A00A11C9091A01C282F30E020583F4F291B97
S1130A103109C9010895482F9091A01C8091A11C0F
S1130A209817D1F09091A01C8091A11C981738F4CC
S1130A308091A11C9091A01C282F30E008C08091C7
S1130A40A11C9091A01C282F30E020583F4F291B57
S1130A5031092F37310591F0E091A11CF0E0E05EFF
S1130A60F34E40838091A11C8F3719F41092A11C7E
S1130A7008958091A11C8F5F8093A11C089590918B
S1130A80A01C8091A11C981711F4EFEF12C0E09103
S1130A90A01CF0E0E05EF34EE0818091A01C8F3753
S1130AA019F41092A01C05C08091A01C8F5F809344
S1130AB0A01C8E2F08951F920F920FB60F920BB6A3
S1130AC00F9211242F933F934F935F936F937F93D0
S1130AD08F939F93AF93BF93EF93FF938091CE0037
S1130AE09ADFFF91EF91BF91AF919F918F917F9189
S1130AF06F915F914F913F912F910F900BBE0F908B
S1130B000FBE0F901F901895DF93CF930F920F9203
S1130B10CDB7DEB7982F8A3099F48DE089839A8314
S1130B20FE0131969E012D5F3F4F8091C80085FFE5
S1130B30FCCF81918093CE00E217F307B1F706C092
S1130B408091C80085FFFCCF9093CE0080E090E0B8
S1130B500F900F90CF91DF9108959091A01C8091F8
S1130B60A11C9817D1F39091A01C8091A11C9817F7
S1130B7038F48091A11C9091A01C282F30E008C06B
S1130B808091A11C9091A01C282F30E020583F4F49
S1130B90291B3109232B09F39091A01C8091A11CDE
S1130BA0981711F4EFEF15C0E091A01CF0E0E05E9F
S1130BB0F34EE0818091A01C8F3719F41092A01C91
S1130BC005C08091A01C8F5F8093A01CED3009F4B8
S1130BD0EAE08E2F90E008950E94F00F9B01AC0193
S1130BE060E074E284EF99E40E94550F0E94C20F02
S1130BF06150704022E42093C80028E92093C90082
S1130C0026E02093CA002FEF2093CE001092A01C60
S1130C101092A11C272F332727FD3A952093CD004E
S1130C206093CC007298739A84E895E06DEA75E05D
S1130C300E940B119093A31C8093A21C0895CF9241
S1130C40DF92EF92FF922091100230911102223034
S1130C50310509F461C00CF449C02330310571F148
S1130C6024303105E1F590ED980F9A3008F4D3C0A3
S1130C708A3261F58091080290910902089789F4FB
S1130C8080910A0290910B02A0910C02B0910D0286
S1130C90B05880930A0290930B02A0930C02B09375
S1130CA00D0287E090E0909309028093080286E0A9
S1130CB090E090930F0280930E020BC090ED980F7A
S1130CC09A3008F47EC08C3209F409C18D3209F4DB
S1130CD0CCC081E090E0909311028093100280E0F8
S1130CE090E0FF90EF90DF90CF9008952130310590
S1130CF0B1F7843209F4C0C0893709F4E2C085E051
S1130D0090E090930F0280930E0280E090E0FF90B9
S1130D10EF90DF90CF90089590ED980F9A3030F1D6
S1130D208C32A1F683E090E090931102809310023C
S1130D308091080290910902089789F48091A81C77
S1130D409091A91CA091AA1CB091AB1CB05880939F
S1130D50A81C9093A91CA093AA1CB093AB1C87E079
S1130D6090E09093090280930802B9CF682F772707
S1130D7067FD709560537109882777FD8095982FDA
S1130D800E94F00F6B017C0120E030E040E251E46E
S1130D906091A81C7091A91C8091AA1C9091AB1C15
S1130DA00E94A4109B01AC01C701B6010E94ED0E84
S1130DB06093A81C7093A91C8093AA1C9093AB1CED
S1130DC08ECF682F772767FD709560537109882748
S1130DD077FD8095982F0E94F00F6B017C0120E035
S1130DE030E040E251E46091A41C7091A51C809114
S1130DF0A61C9091A71C0E94A4109B01AC01C701E2
S1130E00B601EBD76093A41C7093A51C8093A61C19
S1130E109093A71C64CF682F772767FD7095605364
S1130E207109882777FD8095982F0E94F00F6B0138
S1130E307C0120E030E040E251E460910A027091CC
S1130E400B0280910C0290910D020E94A4109B0150
S1130E50AC01C701B601C1D760930A0270930B02BB
S1130E6080930C0290930D023ACF88E090E0909327
S1130E7009028093080233CF82E090E0909311023C
S1130E80809310021092A81C1092A91C1092AA1C04
S1130E901092AB1C1092A41C1092A51C1092A61CBC
S1130EA01092A71C10920A0210920B0210920C02CC
S1130EB010920D0287E090E090930902809308025B
S1130EC00ECF80910E0290910F02099709F017CF6F
S1130ED08AE090E090930F0280930E0200CF84E0AA
S1130EE090E09093110280931002809108029091F7
S1130EF00902089709F033CF8091A41C9091A51C96
S1130F00A091A61CB091A71CB0588093A41C9093E8
S1130F10A51CA093A61CB093A71C21CFCF93DF934D
S1130F20CDB7DEB768970FB6F894DEBF0FBECDBF5E
S1130F3060E071EE80E090E04FDE61E070E080E020
S1130F4090E0D4DA61E070E081E090E0CFDA61E033
S1130F5070E082E090E0CADA78942FEF83ED90E3BA
S1130F60215080409040E1F700C0000080E090E014
S1130F70A4E3B3E489839A83AB83BC838D839E8388
S1130F80AF83B88789879A87AB87BC8740E058E0EE
S1130F906EE170E081E090E02DDA6D817E818F81D9
S1130FA09885EBD7882777FD8095982F0E94F00FBE
S1130FB028E73BE046E351E40E94A410DED7AB01EE
S1130FC06EE170E082E090E015DA69857A858B85C0
S1130FD09C85D3D7882777FD8095982F0E94F00FA2
S1130FE028E73BE046E351E40E94A410C6D7AB01D6
S1130FF06EE170E083E090E0FDD982E19AE10E9425
S113100093118BE29AE10E94931185E0882E912C32
S113101099E0692E712C8091B61C9091B71C0E94A6
S113102055110DDE80910E0290910F0286309105CC
S113103009F44CC00A9779F769817A818B819C8184
S11310409CD7882777FD8095982FCAD728E73BE05F
S113105046E351E40E94A41090D7AB016EE170E026
S113106081E090E0C7D96D817E818F81988585D795
S1131070882777FD8095982FB3D728E73BE046E390
S113108051E40E94A41079D7AB016EE170E082E0D4
S113109090E0B0D969857A858B859C856ED7882741
S11310A077FD8095982F9CD728E73BE046E351E4F1
S11310B00E94A41062D7AB016EE170E083E090E07F
S11310C099D990920F0280920E02A5CF20E030E0D1
S11310D04AE754E46091A81C7091A91C8091AA1C51
S11310E09091AB1CE2D6E62EAB01BC014D875E8726
S11310F06F87788B20E030E04AE754E46091A41CC9
S11311007091A51C8091A61C9091A71CCED6D62EBA
S1131110AB01BC01498B5A8B6B8B7C8B20E030E09C
S11311204AE754E460910A0270910B0280910C0228
S113113090910D02BAD6E62FAB01BC014D8B5E8BAC
S11311406F8B788FFE840F8518892D2D3A894B89F2
S11311505C896E2F7E898F89988D1AD0892B09F42A
S1131160B0CFAD84BE84CF84D888E988FA880B894F
S11311701C892D893E894F89588DBE016F5F7F4F31
S113118082E192E07CD070920F0260920E0243CF13
S11311904F925F926F927F928F929F92AF92BF9283
S11311A0CF92DF92EF92FF920F931F93CF93DF932F
S11311B0CDB7DEB72C970FB6F894DEBF0FBECDBF08
S11311C0E982FA820B831C832D833E834F835887E5
S11311D069877A878B879C8789849A84AB84BC844B
S11311E069817A818B819C81CD80DE80EF80F88457
S11311F09B01AC01A9D72B013C01A7019601C701B2
S1131200B601A2D79B01AC01C301B201E6D52CEF14
S11312103AE740E152E445D618164CF026EF38E29E
S113122040E551ECC501B4018BD787FF19C080E0BC
S113123090E02C960FB6F894DEBF0FBECDBFDF91C1
S1131240CF911F910F91FF90EF90DF90CF90BF90BF
S1131250AF909F908F907F906F905F904F90089584
S113126011E0F12C24E13EEA4FEF50ECC501B4014A
S113127018D618160CF410E0812F9F2DDACF2F9278
S11312803F924F925F926F927F928F929F92AF9212
S1131290BF92CF92DF92EF92FF920F931F93CF935F
S11312A0DF93CDB7DEB7C058D1090FB6F894DEBFCF
S11312B00FBECDBF9E878D871B01A982BA82CB82C8
S11312C0DC82ED82FE820F83188729873A874B8759
S11312D05C8749805A806B807C808D809E80AF8043
S11312E0B884C984DA84EB84FC8420E030E040EEE6
S11312F050ECC301B20124D787FD09C020E030E0DF
S113130040EE50E4C301B201CCD518165CF580E080
S113131090E0A0ECBFE7F10180839183A283B383C3
S113132084839583A683B78380879187A287B387B5
S1131330C058DF4F0FB6F894DEBF0FBECDBFDF91AC
S1131340CF911F910F91FF90EF90DF90CF90BF90BE
S1131350AF909F908F907F906F905F904F903F9051
S11313602F90089520E030E040EE50ECC501B40128
S1131370E7D687FDCCCF20E030E040EE50E4C50155
S1131380B4018FD518160CF4C2CF20E030E040E64B
S113139051ECC701B601D4D687FDB9CF20E030E0C7
S11313A040EE50ECC701B6017CD518160CF4AFCF53
S11313B020E030E040EE50E4C301B2010ED520E05D
S11313C030E040E05FE3C0D6D8D569A37AA38BA30D
S11313D09CA320E030E040EE50E4C501B401FDD40C
S11313E020E030E040E05FE3AFD6C7D5698B7A8B6D
S11313F08B8B9C8B20E030E040E651E4C701B601C2
S1131400ECD4BBD56D8B7E8B8F8B988F80E093E073
S113141029A13AA1829F8001839F100D929F100DF4
S113142011244D855E85400F511F9B01220F331FF0
S1131430260F371F220F331F220F331F80E66989BF
S11314407A89869FF001879FF00D1124D901AE0F90
S1131450BF1FBE8FAD8FA40FB51F6D917D918D9170
S11314609C911397698F7A8F8B8F9C8F14966D91B3
S11314707D918D919C91179725966CAF7DAF8EAF22
S11314809FAF259718966D917D918D919C911B9797
S113149029966CAF7DAF8EAF9FAF29976D897E89FA
S11314A06F5F7F4FCB01880F991F860F971F880F9F
S11314B0991F880F991F9EA78DA78E0F9F1F9AAB08
S11314C089ABFC01E40FF51F6081718182819381F6
S11314D06DA37EA38FA398A784819581A681B781EC
S11314E02D968CAF9DAFAEAFBFAF2D976085718544
S11314F08285938561966CAF7DAF8EAF9FAF619708
S1131500A989BA89119670E67A9FF0017B9FF00D44
S113151011242E0F3F1FDA01A20FB31F6D917D918D
S11315208D919C91139769A77AA78BA79CA7149672
S11315306D917D918D919C91179765966CAF7DAF60
S11315408EAF9FAF659718966D917D918D919C910B
S11315501B9769966CAF7DAF8EAF9FAF69978DA5D2
S11315609EA58E0F9F1FFA01E80FF91F408151813C
S1131570628173814DA75EA76FA778AB44815581C3
S1131580668177816D964CAF5DAF6EAF7FAF6D971F
S11315904085518562857385A1964CAF5DAF6EAF72
S11315A07FAFA1971D5F6D857E85060F171FED8D9B
S11315B0FE8DE00FF11F40815181628173814D8F57
S11315C05E8F6F8F78A34481558166817781A5965C
S11315D04CAF5DAF6EAF7FAFA597408551856285F7
S11315E07385A9964CAF5DAF6EAF7FAFA997E9A99C
S11315F0FAA9E00FF11F408151816281738149ABE7
S11316005AAB6BAB7CAB4481558166817781AD96D7
S11316104CAF5DAF6EAF7FAFAD97408551856285AE
S11316207385E1964CAF5DAF6EAF7FAFE197F80184
S1131630E20FF31F20813181428153812DAB3EABF8
S11316404FAB58AF4481558166817781E5964CAFA5
S11316505DAF6EAF7FAFE5972085318542855385B9
S1131660E9962CAF3DAF4EAF5FAFE997F801E80FB5
S1131670F91F408151816281738149AF5AAF6BAFC9
S11316807CAF6481758186819781ED966CAF7DAF67
S11316908EAF9FAFED9780859185A285B385C358A2
S11316A0DF4F88839983AA83BB83CD57D040298D8C
S11316B03A8D4B8D5C8DCA01B901A9D5811127CE14
S11316C02DA13EA14FA158A5CA01B901A0D58111F0
S11316D01ECE29A53AA54BA55CA5CA01B90197D58B
S11316E0811115CE2DA53EA54FA558A9CA01B90152
S11316F08ED581110CCE2D8D3E8D4F8D58A1CA01F2
S1131700B90185D5811103CE29A93AA94BA95CA9B0
S1131710CA01B9017CD58111FACD2DA93EA94FA9E1
S113172058ADCA01B90173D58111F1CD29AD3AADD6
S11317304BAD5CADCA01B9016AD58111E8CD698DA3
S11317407A8D8B8D9C8D19D49B0177FD1DC3B901B6
S1131750882777FD8095982F43D42AE037ED43E21C
S11317605CE39FD387FDD3CD6DA17EA18FA198A506
S113177004D49B0177FD26C3B901882777FD8095A2
S1131780982F2ED42AE037ED43E25CE38AD387FD19
S1131790BECD69A57AA58BA59CA5EFD39B0177FD4A
S11317A00CC3B901882777FD8095982F19D42AE0B6
S11317B037ED43E25CE375D387FDA9CD6DA57EA526
S11317C08FA598A9DAD39B0177FDF2C2B9018827C6
S11317D077FD8095982F04D42AE037ED43E25CE34B
S11317E060D387FD94CD6D8D7E8D8F8D98A1C5D3EB
S11317F09B0177FDD8C2B901882777FD8095982F82
S1131800EFD32AE037ED43E25CE34BD387FD7FCD92
S113181069A97AA98BA99CA9B0D39B0177FDBEC203
S1131820B901882777FD8095982FDAD32AE037ED20
S113183043E25CE336D387FD6ACD6DA97EA98FA907
S113184098AD9BD39B0177FDA4C2B901882777FD8E
S11318508095982FC5D32AE037ED43E25CE321D38A
S113186087FD55CD69AD7AAD8BAD9CAD86D39B011B
S113187077FDADC2B901882777FD8095982FB0D345
S11318802AE037ED43E25CE30CD387FD40CDA9A108
S1131890BAA1BD01882777FD8095982FA1D39B011C
S11318A0AC019BD220E030E040EE50E495D29B01A5
S11318B0AC01C301B20190D220E030E040E05FE32C
S11318C043D42B013C01E989FA89BF01882777FDBC
S11318D08095982F85D39B01AC017FD220E030E026
S11318E040EE50E479D29B01AC01C501B40174D23D
S11318F020E030E040E05FE327D4698B7A8B8B8B68
S11319009C8B2D893E89B901882777FD8095982F76
S113191067D320E030E040E651E45ED29B01AC01A5
S1131920C701B60159D269A37AA38BA39CA3A301CF
S1131930920160E070E080E89FE34ED26D877E877D
S11319408F87988B29893A894B895C8960E070E09C
S113195080E89FE341D26D8B7E8B8F8B988F29A17A
S11319603AA14BA15CA160E070E080E89FE334D22F
S113197021966CAF7DAF8EAF9FAF21972D853E85AD
S11319804F855889698D7A8D8B8D9C8DDDD36B0144
S11319907C012D8D3E8D4F8D58A1C301B201D4D34E
S11319A09B01AC01C701B60118D22D893E894F892C
S11319B0588DCAD36B017C012D853E854F8558898E
S11319C069A57AA58BA59CA5BFD34B015C012DA964
S11319D03EA94FA958ADC301B201B6D39B01AC01D6
S11319E0C501B401FAD19B01AC0169897A898B895B
S11319F09C89AAD39B01AC01C701B601EED1219603
S1131A002CAD3DAD4EAD5FAD21979ED36B017C01F6
S1131A102D853E854F8558896DA17EA18FA198A5FE
S1131A2093D34B015C0129A93AA94BA95CA9C30131
S1131A30B2018AD39B01AC01C501B401CED12D8979
S1131A403E894F89588D80D34B015C012D853E859D
S1131A504F8558896DA57EA58FA598A975D3698FE3
S1131A607A8F8B8F9C8F29AD3AAD4BAD5CADC301A2
S1131A70B2016AD39B01AC01698D7A8D8B8D9C8DEB
S1131A80ACD19B01AC0169897A898B899C895CD32F
S1131A909B01AC01C501B401A0D19B01AC0169A1BA
S1131AA07AA18BA19CA150D39B01AC01C701B601C3
S1131AB094D1D1016D937D938D939C9313972D8530
S1131AC03E854F85588925966CAD7DAD8EAD9FAD15
S1131AD025973AD36B017C01A5962CAD3DAD4EAD57
S1131AE05FADA597C301B2012FD39B01AC01C70120
S1131AF0B60173D12D893E894F89588D25D36B0149
S1131B007C012D853E854F85588965966CAD7DADEC
S1131B108EAD9FAD659718D34B015C01E5962CAD56
S1131B203DAD4EAD5FADE597C301B2010DD39B0151
S1131B30AC01C501B40151D19B01AC0169897A8919
S1131B408B899C8901D39B01AC01C701B60145D1A6
S1131B5021962CAD3DAD4EAD5FAD2197F5D26B0115
S1131B607C012D853E854F8558892D966CAD7DADC4
S1131B708EAD9FAD2D97E8D24B015C01AD962CAD97
S1131B803DAD4EAD5FADAD97C301B201DDD29B015A
S1131B90AC01C501B40121D12D893E894F89588DED
S1131BA0D3D24B015C012D853E854F8558896D96B6
S1131BB06CAD7DAD8EAD9FAD6D97C6D2698F7A8FBA
S1131BC08B8F9C8FED962CAD3DAD4EAD5FADED97FB
S1131BD0C301B201B9D29B01AC01698D7A8D8B8DA1
S1131BE09C8DFBD09B01AC0169897A898B899C8986
S1131BF0ABD29B01AC01C501B401EFD09B01AC0198
S1131C0069A17AA18BA19CA19FD29B01AC01C701C0
S1131C10B601E3D0F10164837583868397832D85B0
S1131C203E854F85588929966CAD7DAD8EAD9FADAF
S1131C3029978AD26B017C01A9962CAD3DAD4EAD9E
S1131C405FADA997C301B2017FD29B01AC01C7016B
S1131C50B601C3D02D893E894F89588D75D26B0149
S1131C607C012D853E854F85588969966CAD7DAD87
S1131C708EAD9FAD699768D24B015C01E9962CAD9E
S1131C803DAD4EAD5FADE997C301B2015DD29B019D
S1131C90AC01C501B401A1D09B01AC0169897A8969
S1131CA08B899C8951D29B01AC01C701B60195D0A7
S1131CB021962CAD3DAD4EAD5FAD219745D26B0164
S1131CC07C012D853E854F85588961966CAD7DAD2F
S1131CD08EAD9FAD619738D24B015C01E1962CAD7E
S1131CE03DAD4EAD5FADE197C301B2012DD29B0175
S1131CF0AC01C501B40171D02D893E894F89588D3D
S1131D0023D24B015C012D853E854F855889A196D0
S1131D106CAD7DAD8EAD9FADA19716D26D877E87DC
S1131D208F87988BC358DF4F288139814A815B8123
S1131D30CD57D040C301B20107D29B01AC016D85E0
S1131D407E858F85988949D09B01AC0169897A8900
S1131D508B899C89F9D19B01AC01C501B4013DD0AB
S1131D609B01AC0169A17AA18BA19CA1EDD19B013E
S1131D70AC01C701B60131D0D10118966D937D93A2
S1131D808D939C931B97D4CA22273327261B370B8A
S1131D90DECC22273327261B370B57CD22273327A8
S1131DA0261B370B3DCD22273327261B370B23CD8C
S1131DB022273327261B370B09CD22273327261B3F
S1131DC0370BEFCC22273327261B370BD5CC222702
S1131DD03327261B370B4ECD5058BB27AA270ED0CE
S1131DE075C166D130F06BD120F031F49F3F11F40E
S1131DF01EF45BC10EF4E095E7FB51C1E92F77D1E6
S1131E0080F3BA17620773078407950718F071F413
S1131E109EF58FC10EF4E0950B2EBA2FA02D0B0169
S1131E20B90190010C01CA01A0011124FF27591B1B
S1131E3099F0593F50F4503E68F11A16F040A22F21
S1131E40232F342F4427585FF3CF46953795279592
S1131E50A795F0405395C9F77EF41F16BA0B620B91
S1131E60730B840BBAF09150A1F0FF0FBB1F661FD8
S1131E70771F881FC2F70EC0BA0F621F731F841F1B
S1131E8048F4879577956795B795F7959E3F08F041
S1131E90B3CF9395880F08F09927EE0F9795879500
S1131EA00895D9D008F481E008950CD00FC107D16A
S1131EB040F0FED030F021F45F3F19F0F0C0511132
S1131EC039C1F3C014D198F39923C9F35523B1F35D
S1131ED0951B550BBB27AA2762177307840738F095
S1131EE09F5F5F4F220F331F441FAA1FA9F333D0F4
S1131EF00E2E3AF0E0E830D091505040E695001CA8
S1131F00CAF729D0FE2F27D0660F771F881FBB1F63
S1131F10261737074807AB07B0E809F0BB0B802D3D
S1131F20BF01FF2793585F4F2AF09E3F510568F089
S1131F30B6C000C15F3FECF3983EDCF3869577951D
S1131F406795B795F7959F5FC9F7880F911D96958B
S1131F50879597F90895E1E0660F771F881FBB1FE7
S1131F60621773078407BA0720F0621B730B840B94
S1131F70BA0BEE1F88F7E095089504D06894B11168
S1131F80D9C00895BCD088F09F5790F0B92F9927F5
S1131F90B751A0F0D1F0660F771F881F991F1AF070
S1131FA0BA95C9F712C0B13081F0C3D0B1E0089539
S1131FB0C0C0672F782F8827B85F39F0B93FCCF3BA
S1131FC0869577956795B395D9F73EF49095809566
S1131FD0709561957F4F8F4F9F4F0895E89409C086
S1131FE097FB3EF490958095709561957F4F8F4F48
S1131FF09F4F9923A9F0F92F96E9BB279395F6955E
S1132000879577956795B795F111F8CFFAF4BB0FDB
S113201011F460FF1BC06F5F7F4F8F4F9F4F16C03F
S1132020882311F096E911C0772321F09EE8872FC9
S1132030762F05C0662371F096E8862F70E060E085
S11320402AF09A95660F771F881FDAF7880F9695FE
S1132050879597F90895990F0008550FAA0BE0E8A2
S1132060FEEF16161706E807F907C0F01216130656
S1132070E407F50798F0621B730B840B950B39F496
S11320800A2661F0232B242B252B21F408950A26FC
S113209009F4A140A6958FEF811D811D089597F93C
S11320A09F6780E870E060E008959FEF80EC0895FA
S11320B000240A9416161706180609060895002423
S11320C00A9412161306140605060895092E03949D
S11320D0000C11F4882352F0BB0F40F4BF2B11F411
S11320E060FF04C06F5F7F4F8F4F9F4F089557FD70
S11320F09058440F551F59F05F3F71F04795880F72
S113210097FB991F61F09F3F79F087950895121608
S113211013061406551FF2CF4695F1DF08C01616B4
S113212017061806991FF1CF869571056105089465
S11321300895E894BB2766277727CB0197F908957C
S11321408ADF08F48FEF08950BD0C0CFB1DF28F0F9
S1132150B6DF18F0952309F0A2CFA7CF1124EACF58
S1132160C6DFA0F3959FD1F3950F50E0551F629FF2
S1132170F001729FBB27F00DB11D639FAA27F00DDC
S1132180B11DAA1F649F6627B00DA11D661F829F03
S11321902227B00DA11D621F739FB00DA11D621FE8
S11321A0839FA00D611D221F749F3327A00D611D05
S11321B0231F849F600D211D822F762F6A2F1124E7
S11321C09F5750408AF0E1F088234AF0EE0FFF1F3A
S11321D0BB1F661F771F881F91505040A9F79E3F71
S11321E0510570F05CCFA6CF5F3FECF3983EDCF373
S11321F0869577956795B795F795E7959F5FC1F7AE
S1132200FE2B880F911D9695879597F9089523DFE6
S1132210880B990B08950F931F93CF93DF93EC01D1
S11322208B01009731F46115710519F480E090E099
S113223037C06EE070E081E090E0A2D0FC0100972E
S1132240A9F380E883830115110571F013870287D0
S113225081E883838091B61C9091B71C892B21F46B
S1132260F093B71CE093B61C2097C9F0D187C087C0
S11322708381826083838091B81C9091B91C892BDF
S113228071F4F093B91CE093B81C8091BA1C90913E
S1132290BB1C892B21F4F093BB1CE093BA1CCF0127
S11322A0DF91CF911F910F910895CF93DF93EC01AC
S11322B02B8120FF33C026FF0AC02F7B2B838E8106
S11322C09F8101969F838E838A8190E029C022FF9B
S11322D00FC0E881F9818081992787FD9095009747
S11322E019F420622B831AC03196F983E8830EC057
S11322F0EA85FB85199597FF09C02B81019611F496
S113230080E101C080E2822B8B8308C02E813F8153
S11323102F5F3F4F3F832E83992702C08FEF9FEF9C
S1132320DF91CF9108950F931F93CF93DF93E091A3
S1132330B81CF091B91C238121FF1BC0EC0100E003
S113234010E089916091B81C7091B91CDB0118965A
S1132350ED91FC911997882331F01995892B89F314
S11323600FEF1FEFEECF8AE01995892B11F4C80106
S113237002C08FEF9FEFDF91CF911F910F910895CE
S11323800F931F93CF93DF93869F8001879F100D38
S1132390969F100D1124C8010DD0EC01009721F077
S11323A0A80160E070E02DD1CE01DF91CF911F91A3
S11323B00F910895CF93DF938230910510F482E05A
S11323C090E0E091BE1CF091BF1C20E030E0A0E062
S11323D0B0E0309739F14081518148175907B8F07E
S11323E04817590771F482819381109729F0139645
S11323F09C938E9312972CC09093BF1C8093BE1C09
S113240027C02115310531F04217530718F0A901EF
S1132410DB0101C0EF019A01BD01DF010280F381FC
S1132420E02DD7CF21153105F9F0281B390B2430C5
S1132430310580F48A819B816115710521F0FB01CE
S11324409383828304C09093BF1C8093BE1CFE01BF
S1132450329644C0FE01E20FF31F81939193225000
S11324603109398328833AC02091BC1C3091BD1CAA
S1132470232B41F420910402309105023093BD1CBA
S11324802093BC1C209102023091030221153105D6
S113249041F42DB73EB74091060250910702241B28
S11324A0350BE091BC1CF091BD1CE217F307A0F4BE
S11324B02E1B3F0B2817390778F0AC014E5F5F4F96
S11324C02417350748F04E0F5F1F5093BD1C4093EF
S11324D0BC1C8193919302C0E0E0F0E0CF01DF9156
S11324E0CF910895CF93DF93009709F487C0FC013F
S11324F0329713821282C091BE1CD091BF1C2097C8
S113250081F420813181280F391F8091BC1C909166
S1132510BD1C8217930779F5F093BD1CE093BC1C96
S11325206DC0DE0120E030E0AE17BF0750F4129614
S11325304D915C9113979D014115510509F1DA0103
S1132540F3CFB383A28340815181840F951F8A17EF
S11325509B0771F48D919C911197840F951F02969E
S11325609183808312968D919C9113979383828398
S11325702115310529F4F093BF1CE093BE1C3EC025
S1132580D9011396FC93EE9312974D915D91A40F8C
S1132590B51FEA17FB0779F480819181840F951F99
S11325A00296D90111969C938E93828193811396FE
S11325B09C938E931297E0E0F0E08A819B810097D0
S11325C019F0FE01EC01F9CFCE0102962881398180
S11325D0820F931F2091BC1C3091BD1C2817390712
S11325E069F4309729F41092BF1C1092BE1C02C0EB
S11325F013821282D093BD1CC093BC1CDF91CF9177
S11326000895DC0101C06D9341505040E0F70895F6
S1072610F894FFCF68
S113261401000000C01C20000700000008C10500E0
S113262401000000000000000000000000000000A1
S11326340000000000000000000000000000000092
S11326440000000000000000000000000000000082
S11326540000566A96434FDE8B4319D32043C40EBD
S11326649143D3E1864392E9144316328E4350C90D
S113267483433B43084301718C4361B68143D307CD
S1132684F54200000000000000000000000000000B
S11326940000000000000000000000000000000032
S11326A40000000000007BCD8F431CE17D43DDEB83
S11326B42E431C9E8B439F307543EF1F234391D4B9
S11326C48843EB1F6E43348A1643D7DC8643321A9D
S11326D46843E9980843BD848543EEE2624352DAD1
S11326E4F0420000000000000000000000000000B0
S11326F4000000000000000000001BB58E431F61B1
S11327046E433A0C4143DA0C8A43D1B66443AEC8EF
S11327143543DBDC8643C10F5C4320192A43627DC5
S1132724844345DD5343AA691D4306B6824319BD58
S11327344B435CE60E4336708143964B43436EF839
S1132744F94200000000000000000000000035779A
S11327549243EAAE6543D0E25643CBB48B4302D1F1
S11327645A43F9D64B434EB1874399D15043811E02
S1132774414307C184438F064743762436436F7E1F
S1132784824310EB3C43DF502A4397C2804370E2F8
S1132794314360C81C43C8FB7E43AEE62443CDD713
S11327A40B43000000000000000000000000357727
S11327B49243D0E25643EAAE6543CBB48B43F9D695
S11327C44B4302D15A434EB18743811E414399D1AD
S11327D4504307C18443762436438F0647436F7EB0
S11327E48243DF502A4310EB3C4397C2804360C8C2
S11327F41C4370E23143C8FB7E43CDD70B43AEE6A2
S11328042443000000000000000000000000000059
S1132814000000000000000000001BB58E433A0CC9
S113282441431F616E43DA0C8A43AEC83543D1B6C3
S11328346443DBDC864320192A43C10F5C43627D75
S11328448443AA691D4345DD534306B682435CE6CB
S11328540E4319BD4B43367081436EF8F942964BCF
S113286443430000000000000000000000000000DA
S11328740000000000000000000000000000000050
S11328840000000000007BCD8F43DDEB2E431CE1F0
S11328947D431C9E8B43EF1F23439F30754391D488
S11328A48843348A1643EB1F6E43D7DC8643E99886
S11328B40843321A6843BD84854352DAF042EEE297
S11328C4624300000000000000000000000000005B
S11328D400000000000000000000000000000000F0
S11328E400000000000000000000000000000000E0
S11328F40000566A964319D320434FDE8B43C40E1B
S1132904914392E91443D3E1864316328E433B4305
S1132914084350C9834301718C43D307F54261B61C
S113292481430000000000000000000000000000DB
S11329340000000000000000000093EC944318D948
S11329448F43835534433DD48B43A520884336D1E8
S11329542843DD8F874306D9834305E91C43BC9C84
S11329648443B5C18043EC2F1043D675824360D2AF
S11329747C43511F024393EE804366527943BDD591
S1132984E342000000000000000000000000C60351
S11329948E43DB678443DB46424335908743F044EC
S11329A47D434EE536432A6F8343E89C7443A15226
S11329B42B43544B804325606D43C30C1F43139432
S11329C47B431A086743BF7211435D9077435F5595
S11329D46143CA7F01431672744340285C430DCE9D
S11329E4D942EED28E437C297D4347CF5343DF370C
S11329F48743C9267143BD6C4843C7998243A6776C
S1132A04674356613D438E1E7E43ABD75E430B1929
S1132A143243C84F78439BB8564383022643BD6E62
S1132A247343FABC4E43E554184348556F43CE8C64
S1132A344643F3940743D2F76B43C2B23D437B7ED0
S1132A44DE42B8A88A438DB26A43074F5D4371A737
S1132A54844369C05F43B2445243B76F80436FDE1B
S1132A645543CEC64743081C7A436C594C43643BD4
S1132A743D43136A74430FB44243F71532438D86BE
S1132A846F43F56938438C9B2543AA536B43BEB209
S1132A942C43827016434BC9674346DF1D43D998C0
S1132AA40043B8A88A43074F5D438DB26A4371A7B4
S1132AB48443B244524369C05F43B76F8043CEC674
S1132AC447436FDE5543081C7A43643B3D436C59CA
S1132AD44C43136A7443F71532430FB442438D864F
S1132AE46F438C9B2543F5693843AA536B43827027
S1132AF41643BEB22C434BC96743D998004346DFFF
S1132B041D43EED28E4347CF53437C297D43DF37A5
S1132B148743BD6C4843C9267143C79982435661B0
S1132B243D43A67767438E1E7E430B193243ABD7CE
S1132B345E43C84F7843830226439BB85643BD6E15
S1132B447343E5541843FABC4E4348556F43F39416
S1132B540743CE8C4643D2F76B437B7EDE42C2B23C
S1132B643D43000000000000000000000000C60314
S1132B748E43DB464243DB678443359087434EE50B
S1132B843643F0447D432A6F8343A1522B43E89C8C
S1132B947443544B8043C30C1F4325606D43139407
S1132BA47B43BF7211431A0867435D907743CA7F1E
S1132BB401435F556143167274430DCED9424028D4
S1132BC45C4300000000000000000000000000005E
S1132BD40000000000000000000093EC94438355BF
S1132BE4344318D98F433DD48B4336D12843A5208D
S1132BF48843DD8F874305E91C4306D98343BC9C82
S1132C048443EC2F1043B5C18043D6758243511FCE
S1132C14024360D27C4393EE8043BDD5E3426652C3
S1132C2479430000000000000000000000000626B4
S1132C348D43EA4A9343243D4043603B854349879B
S1132C44894355C73443218C80433BD48443BC2EED
S1132C5429433EF47943066E814346FA1C43972282
S1132C647443B68F7D432F9E0F43904C6F431B6177
S1132C747943264B00430F526B43042C7643C8D646
S1132C84DA4211CD8843693F884332FC4D43ACFE9C
S1132C948143858081438E924243A9A37A4356A4F7
S1132CA47943955637436A10734386047243EDBCE3
S1132CB42B43EC896C43306B6B433A331F435ABE4A
S1132CC46643BF8665437EE610439A8461432F2D91
S1132CD460435D71FE426DC95C436B495B4384642C
S1132CE4C942A25F8243852879439F8653438D66F4
S1132CF47A43D2D26E437C91484309177243FA0053
S1132D046643B4C43D43FAE06A43D7F35D43EC93AA
S1132D143243635C64431B45564371602643FF4F4F
S1132D245E4378A84E43AA2E1843F89658431DCF01
S1132D34464322C3054306165343A2483E435A500E
S1132D44C44296C07F43CCE868437F845C436729CC
S1132D547643AAD25E43940E5243E2216E43DE7C50
S1132D64554360F147435BFD66437F5E4C4396A540
S1132D743D43B7666043DA084343C79D324374292D
S1132D845A4332F938431B062643221E54434E56F3
S1132D942D43F41A1643C01F4E4312131E43222814
S1132DA4F74296C07F437F845C43CCE86843672939
S1132DB47643940E5243AAD25E43E2216E4360F1F9
S1132DC44743DE7C55435BFD664396A53D437F5EE6
S1132DD44C43B7666043C79D3243DA0843437429BE
S1132DE45A431B06264332F93843221E5443F41A29
S1132DF416434E562D43C01F4E432228F742121346
S1132E041E43A25F82439F865343852879438D667C
S1132E147A437C914843D2D26E4309177243B4C4B3
S1132E243D43FA006643FAE06A43EC933243D7F332
S1132E345D43635C6443716026431B455643FF4F03
S1132E445E43AA2E184378A84E43F896584322C3E7
S1132E5405431DCF4643061653435A50C442A24861
S1132E643E4311CD884332FC4D43693F8843ACFE55
S1132E7481438E92424385808143A9A37A43955624
S1132E84374356A479436A107343EDBC2B43860439
S1132E947243EC896C433A331F43306B6B435ABE21
S1132EA466437EE61043BF8665439A8461435D713D
S1132EB4FE422F2D60436DC95C438464C9426B494F
S1132EC45B43000000000000000000000000062630
S1132ED48D43243D4043EA4A9343603B854355C7AD
S1132EE4344349878943218C8043BC2E29433BD4F2
S1132EF484433EF4794346FA1C43066E8143972285
S1132F0474432F9E0F43B68F7D43904C6F43264BDF
S1132F1400431B6179430F526B43C8D6DA42042C35
S1132F2476430000000000000000000000005C6E16
S1132F348143BB658F43797444439998774324D67A
S1132F448843EA1A394328C76E43CCBC8443E09AC5
S1132F542D432E2E6743AFA881431B702143E24FB8
S1132F646043DE767E43F4F813432BE8594376A199
S1132F747A434231044382C9534321B67743CDA6ED
S1132F84DF4257C27D43B19D874351DA5143DCA1EB
S1132F9472436BC08143F6A8464395826943C3E7F1
S1132FA47A433DA93B43B25F614332D27343274D15
S1132FB4304381C059437EB16D4362FB23431B56A6
S1132FC45243F34368430ECD1543AAD94A43426995
S1132FD46343B9DC03432DF34243B9145F4359AD4E
S1132FE4CC42DECF7343B1937A43591D574364FFF4
S1132FF46943ECE57043AC7A4C43E8506143489828
S113300468431A074243AB3059439C0A6143E0398D
S113301437430B42514318E6594397762B437A338B
S113302449438AEC52435BC01D43BAA04043E0E2E7
S11330344B43DCC40B436AE036438A7D4443586102
S1133044C942437A6F43796C6B43C3B05F43A004B2
S11330546643BFD1614334A25543556D5D4382F445
S11330645843E4F24B4387395543C75A5043002528
S11330744243BA104D4391A347430EB637431E99B6
S1133084444370603E436FE42B4315543B4322E2B4
S1133094334308181D435D4B3043C39D2643DD1160
S11330A40543437A6F43C3B05F43796C6B43A00415
S11330B4664334A25543BFD16143556D5D43E4F285
S11330C44B4382F458438739554300254243C75A36
S11330D45043BA104D430EB6374391A347431E9948
S11330E444436FE42B4370603E4315543B43081838
S11330F41D4322E233435D4B3043DD110543C39D3D
S11331042643DECF7343591D5743B1937A4364FF77
S11331146943AC7A4C43ECE57043E85061431A07C5
S1133124424348986843AB305943E03937439C0AD7
S113313461430B42514397762B4318E659437A3340
S113314449435BC01D438AEC5243BAA04043DCC4E8
S11331540B43E0E24B436AE036435861C9428A7D3B
S1133164444357C27D4351DA5143B19D8743DCA1A3
S11331747243F6A846436BC08143958269433DA9D3
S11331843B43C3E77A43B25F6143274D304332D2B2
S1133194734381C0594362FB23437EB16D431B5681
S11331A452430ECD1543F3436843AAD94A43B9DCC9
S11331B40343426963432DF3424359ADCC42B914EA
S11331C45F430000000000000000000000005C6E8B
S11331D4814379744443BB658F4399987743EA1ACE
S11331E4394324D6884328C76E43E09A2D43CCBC84
S11331F484432E2E67431B702143AFA88143E24FBF
S11332046043F4F81343DE767E432BE8594342319A
S1133214044376A17A4382C95343CDA6DF4221B63F
S11332247743000000000000000000000000BF4DD0
S11332347343509A9143F6BD4C43676B684380E3F0
S11332448A43828641430E0B5F43EAD8864355582A
S113325436433758564343DE8343A2A72A4383DACB
S11332644D43CA8F8143ECD31D432C2B45438B8E92
S11332747F43DFE30E43B9C93B436DEB7C43918544
S1133284F7420D786F43373D8A4304AD5943EF84C5
S11332946443F24084435F974E43FAD75A434F063C
S11332A4804338EF4343D7AF51431B3E7943F71E62
S11332B43943DF924843737D7343B6952D43C20D5E
S11332C43F43F0876E439D89204384823443A33F64
S11332D46A4303731043FAC02743229C66438EC394
S11332E4F042C359664391258043DA795E43093138
S11332F45C4327B67643E01354437AB25243C7B5CA
S11333046E434C164A4346564943E29B674319FAB3
S11333143F4319A83F436B1361432B37354370165E
S11333243543A8E85A43E70729436EA12843BCF56B
S1133334544306D61943A3A5174389184F43ACC76E
S113334401437F3D62432EC071438F926643FD481F
S11333545843925E68434DC95C43EDC74E43AAED9E
S11333645F4340965343073E45438AF15743E47E03
S11333744A4314313B43BC155043E01541437CF4A8
S11333842F43400A4843A1CE3643D23022436066D9
S11333943F4372AC2A43B5660D43CA6E3543A2FE5D
S11333A419437F3D62438F9266432EC07143FD48A7
S11333B458434DC95C43925E6843EDC74E434096FF
S11333C45343AAED5F43073E4543E47E4A438AF1EF
S11333D4574314313B43E0154143BC1550437CF43B
S11333E42F43A1CE3643400A4843D230224372AC21
S11333F42A4360663F43B5660D43A2FE1943CA6E71
S11334043543C3596643DA795E43912580430931D0
S11334145C43E013544327B676437AB252434C16C2
S11334244A43C7B56E434656494319FA3F43E29BA0
S1133434674319A83F432B3735436B136143701615
S11334443543E7072943A8E85A436EA1284306D61F
S11334541943BCF55443A3A51743ACC701438918C6
S11334644F430D786F4304AD5943373D8A43EF848A
S113347464435F974E43F2408443FAD75A4338EF88
S113348443434F068043D7AF5143F71E39431B3E92
S11334947943DF924843B6952D43737D7343C20D3C
S11334A43F439D892043F0876E43848234430373EE
S11334B41043A33F6A43FAC027438EC3F042229CBD
S11334C46643000000000000000000000000BF4D3F
S11334D47343F6BD4C43509A9143676B68438286A9
S11334E4414380E38A430E0B5F4355583643EAD87D
S11334F4864337585643A2A72A4343DE834383DAD9
S11335044D43ECD31D43CA8F81432C2B4543DFE346
S11335140E438B8E7F43B9C93B439185F7426DEBD0
S11335247C430000000000000000000000000000D4
S11335340000000000000000000090625C43BCA98D
S11335448F4314834E434A2352432A098B4310BBAB
S1133554434385394843E8E4874306D93843D819B3
S11335643E434F928543AE4A2D433B2E33430ED8FC
S11335748343DC5020432F8F2643CF9E824394976A
S11335841043BCC26443CC08914340226643945E16
S11335945943D413894357BB5A43BFEE4E43667C05
S11335A484431A58504336BA4443BB078143323BDD
S11335B4464381373A43287C7C43BFDB3B43DACB25
S11335C42E43F6E277432FA3304330802143B31CC8
S11335D474439EA52343451F10430F1D7143E1D338
S11335E41243CCE25B43A15785435D056A438D1FB7
S11335F45143792680431F895F43C3C446438D3AAC
S1133604784390F355433D433C4317687143D8A82A
S11336144C43510C3143DE686B430C344343355300
S113362424433A076643F3123943D879144384276D
S11336346143BC772D43377DF74237BE5C43EC8F3F
S11336441E4396D75743C4267C437C737143FA3A8A
S11336544D433080724359956743EDD242433C480D
S11336646A43B5C35E43E916384336DB6243176ED7
S113367456438C6C2C4310E35B43D7344E4396DCA3
S11336841E43FB245543ACBD45437A290D43CF6CFB
S11336944E43E7903C432243D242167D47433CD3F6
S11336A4314396D757437C737143C4267C43FA3A17
S11336B44D435995674330807243EDD24243B5C3B9
S11336C45E433C486A43E9163843176E564336DB77
S11336D462438C6C2C43D7344E4310E35B4396DC37
S11336E41E43ACBD4543FB2455437A290D43E7905F
S11336F43C43CF6C4E432243D2423CD33143167DE8
S11337044743CCE25B435D056A43A15785438D1F60
S113371451431F895F4379268043C3C4464390F3CE
S113372455438D3A78433D433C43D8A84C431768EA
S11337347143510C31430C344343DE686B433553BA
S11337442443F31239433A076643D8791443BC77C4
S11337542D4384276143377DF742EC8F1E4337BEE4
S11337645C43BCC2644340226643CC089143945EE8
S1133774594357BB5A43D4138943BFEE4E431A5893
S11337845043667C844336BA4443323B4643BB07C6
S1133794814381373A43BFDB3B43287C7C43DACB08
S11337A42E432FA33043F6E27743308021439EA572
S11337B42343B31C7443451F1043E1D312430F1D29
S11337C4714300000000000000000000000000003D
S11337D40000000000000000000090625C431483B9
S11337E44E43BCA98F434A23524310BB43432A0983
S11337F48B438539484306D93843E8E48743D819C9
S11338043E43AE4A2D434F9285433B2E3343DC5013
S113381420430ED883432F8F264394971043CF9E7F
S113382482430000000000000000000000000000CB
S11338340000000000000000000000000000000080
S1133844000000000000A6C348433C1D9243D1A1DC
S11338545643E0EB3D439F0F8E4351794C43A4BA46
S113386432431B658B437464424306922643528954
S1133874894328D43743418C1843DB4888434D1388
S11338842C43000000000000000000000000B07C95
S1133894514365239243A4746C43EF59464307652B
S11338A48B43129C6143FA603B43BC5E8743A4EEA2
S11338B45743E60130437A6A844316B14E435D9F0D
S11338C423436023824338664543074C1543C2624D
S11338D480431D8E3B439B1C034381327E43606BB8
S11338E430438398544330188F4368AD7B43C836C0
S11338F4494378728743C0BC6F4341323E431BD56E
S1133904824380046643A3F53243929A7E43EE4D88
S11339145D43D4EF264342D37843690C5543A359FA
S113392419435CFB734311E04C4324BD0843A6ECE8
S11339346F43796A44432F6DE142829B6C43A7270A
S11339443B437C875043FA4F864315FE80433B51E7
S113395445434A8180434CC0764366433A43855782
S1133964784319C56D4323D12E43431D7143AEE8F7
S11339746543EF5F2243D6C96A4345AF5E439D0462
S113398414435E1B654314D0574387CA014330EF85
S11339945F434A135143A469C6426D345B43FA3FFF
S11339A44A437C87504315FE8043FA4F86433B5178
S11339B445434CC076434A81804366433A4319C520
S11339C46D438557784323D12E43AEE86543431DA5
S11339D47143EF5F224345AF5E43D6C96A439D04F6
S11339E4144314D057435E1B654387CA01434A13E7
S11339F4514330EF5F43A469C642FA3F4A436D34EE
S1133A045B438398544368AD7B4330188F43C83673
S1133A144943C0BC6F437872874341323E438004B8
S1133A2466431BD58243A3F53243EE4D5D43929A1C
S1133A347E43D4EF2643690C554342D37843A359B8
S1133A44194311E04C435CFB734324BD0843796A76
S1133A544443A6EC6F432F6DE142A7273B43829B6B
S1133A646C43000000000000000000000000B07C73
S1133A745143A4746C4365239243EF594643129C07
S1133A84614307658B43FA603B43A4EE5743BC5E32
S1133A948743E601304316B14E437A6A84435D9FFB
S1133AA423433866454360238243074C15431D8EE4
S1133AB43B43C26280439B1C0343606B30438132AB
S1133AC47E4300000000000000000000000000002D
S1133AD400000000000000000000000000000000DE
S1133AE4000000000000A6C34843D1A156433C1D76
S1133AF49243E0EB3D4351794C439F0F8E43A4BA68
S1133B043243746442431B658B430692264328D490
S1133B14374352898943418C18434D132C43DB4862
S1133B2488430000000000000000000000000000C2
S1133B34000000000000000000000000000000007D
S1133B44000000000000000000000000000000006D
S1133B54000054263843B9DD9843180068433E9E58
S1133B642C430C1894434C935E43326B20438F765E
S1133B74914310FE5543E1FA12439FD68F437EB717
S1133B844D4300000000000000000000000000009D
S1133B94000000000000000000000000000000001D
S1133BA40000000000000A2C36434B1B9143661DA1
S1133BB47043B7922A4312FC8C4366136743AB41A8
S1133BC41E4302438A4336175F43899D1043C25AF6
S1133BD4884313AB57434AB8004329108743187FDB
S1133BE4504300000000000000000000000000003A
S1133BF4000000000000000000005A673943F1FE91
S1133C048C4318737C43A9EA2D43C44E8843CD09DD
S1133C14734300E12143A70B85434C3B6B435CBADC
S1133C24144354958243F05B64430EA305437EB569
S1133C348043291B5E435E00E64220AE7E43E04B94
S1133C44584300000000000000000000000011E8D8
S1133C54404397558C430B1E8743C9813543D9048C
S1133C648643D72F814314E4294341DB8143BFD7DF
S1133C747943548E1D4328487D436AE7724337E0F1
S1133C840F438A12784333FD6C4311AAFF4227D2AF
S1133C94734388DA67433339D642066F7043226626
S1133CA4634300000000000000000000000011E86D
S1133CB440430B1E874397558C43C9813543D72F03
S1133CC48143D904864314E42943BFD7794341DBB0
S1133CD48143548E1D436AE7724328487D4337E089
S1133CE40F4333FD6C438A12784311AAFF4288DAE6
S1133CF4674327D273433339D64222666343066F3C
S1133D0470430000000000000000000000000000F8
S1133D14000000000000000000005A6739431873D3
S1133D247C43F1FE8C43A9EA2D43CD097343C44E6D
S1133D34884300E121434C3B6B43A70B85435CBAA6
S1133D441443F05B6443549582430EA30543291B37
S1133D545E437EB580435E00E642E04B584320AEAA
S1133D647E4300000000000000000000000000008A
S1133D74000000000000000000000000000000003B
S1133D840000000000000A2C3643661D70434B1BE0
S1133D949143B7922A436613674312FC8C43AB41A5
S1133DA41E4336175F4302438A43899D104313AB72
S1133DB45743C25A88434AB80043187F50432910D2
S1133DC48743000000000000000000000000000021
S1133DD400000000000000000000000000000000DB
S1133DE400000000000000000000000000000000CB
S1133DF400005426384318006843B9DD98433E9EB6
S1133E042C434C935E430C189443326B204310FEB2
S1133E1455438F769143E1FA12437EB74D439FD6BF
S1133E248F43496E697469616C697A6174696F6EF0
S1133E3420636F6D706C6574652E004275696C64E3
S1073E4420302E00F8
S9030000FC
