:1000000088C00000A6C00000A4C00000A2C000007C
:10001000A0C000009EC000009CC000009AC000006C
:1000200098C0000096C0000094C0000092C000007C
:1000300090C000008EC000008CC000008AC000008C
:1000400088C0000086C0000084C0000082C000009C
:1000500080C000007EC000007CC000007AC00000AC
:1000600078C0000046C4000074C0000072C00000E8
:1000700070C000006EC000006CC000006AC00000CC
:1000800068C0000066C0000064C0000062C00000DC
:1000900035C500005EC000005CC000005AC0000012
:1000A00058C0000056C0000054C0000052C00000FC
:1000B00050C000004EC000004CC000004AC000000C
:1000C00048C0000046C0000044C00000072C7AA5CC
:1000D000BA6CC590DA3B9365FC8BBC53F810FD3CC1
:1000E0005692834DBD879D3AB63DCBC9BF5BBE736B
:1000F000DA0FC93F05A84CCDB2D44EB93836A902A3
:100100000C50B9918688083CA6AAAA2ABE00000015
:10011000803F11241FBECFEFD1E2DEBFCDBF00E094
:100120000CBF12E0A0E0B2E0E6E5F9E300E00BBFAF
:1001300002C007900D92A034B107D9F724E0A0E4E3
:10014000B2E001C01D92AC3CB207E1F73CD70C9481
:10015000A91C56CF809100029091010208958093CE
:1001600042020895809344020895FC01E05CFD4F33
:100170006583089580934302089520E030E09091D4
:10018000E402982311F021E030E0C9010895809144
:10019000E30290E00895FC01E052FD4F858190E07C
:1001A0000895362F20E0280F391FC9010895282F00
:1001B00030E0C90108958070892F90E008950F9371
:1001C0001F93CF93DF938091280390912903892B6C
:1001D00009F4B8C0809142028E3F09F4A9C0809111
:1001E000000290910102892B29F41092270386E0E6
:1001F000809326038091270390E06091260370E0AE
:10020000681B790B80529D4F49D390912703980F1B
:100210009093270380912603981718F44AD20197E8
:1002200071F070912703472F50E0DA0111978A018E
:100230000250104060E0ED01C052DD4F18C08091C7
:100240002703882309F071C086E090E073C0F901AC
:10025000E052FD4F80818F3F19F481818F3F61F023
:100260002017310719F488818F3F31F06F5F262FF7
:1002700030E02A173B075CF36623A1F090E0421BB5
:10028000530B08C0E052FD4FDF01A20FB31F8C914A
:1002900080839F5FE92FF0E0E417F5079CF3761B5E
:1002A000709327032091270380912603281728F1B4
:1002B000909142028091E2029817B9F56091E302B1
:1002C0006C5F60932603261788F4822F90E070E01D
:1002D000681B790B80529D4FE1D290912703980FB4
:1002E0009093270380912603981738F08091E302BA
:1002F000A82FB0E020E090E00CC085E090E0909363
:100300000102809300021EC0E052FD4F8281980FCF
:100310002F5FE22FF0E0AE17BF07B4F7A052BD4F3A
:10032000909513968C91891719F087E090E002C0A0
:1003300081E090E0909301028093000210922903E3
:1003400010922803DF91CF911F910F9108951F9371
:100350008091280390912903019709F45DC081E001
:1003600090E0909329038093280380914302893978
:1003700040F490914402892F8150863028F09338C0
:1003800019F084E090E02FC08FEF809340028093BB
:10039000410280914302A82FB0E020E090E005C028
:1003A000E05CFD4F8281980F2F5FE22FF0E0AE17E7
:1003B000BF07B4F7A05CBD4F909513969C938091B6
:1003C0000002909101020697029708F438D110912B
:1003D00043021C5F80E492E0612F70E035D1181772
:1003E00059F082E090E09093010280930002109215
:1003F00029031092280310C080914402823029F40E
:100400008091460290E0069602C086E090E040D1DE
:1004100010920102109200021F91089598DF8091BE
:10042000000290910102892B39F4C9DE809100020B
:10043000909101020597C9F30895282F8091280310
:1004400090912903892B91F42093420283E08093B9
:10045000440260934502CA01409346028070909323
:10046000470285E080934302D9CF0895FFCF282F1C
:100470008091280390912903892BB1F420934202A3
:1004800082E080934402609345028093460284E0B8
:1004900080934302C3DF3091E60220E08091E502C1
:1004A000280F311DC9010895FFCF282F80912803FF
:1004B00090912903892B71F42093420283E0809369
:1004C0004402609345024093460284E080934302D5
:1004D000A5CF0895FFCF282F80912803909129035D
:1004E000892B91F42093420282E08093440260932E
:1004F000450281E08093460284E0809343028EDFD0
:100500008091E50290E00895FFCF282F8091280385
:1005100090912903892B51F42093420281E080932A
:10052000440282E08093430279CF0895FFCF86C0D2
:1005300008950F931F938C016F5F7F4F882777FD7E
:100540008095982F0E9440189B01AC0160E074E2F6
:1005500084EF99E40E94A517AB01BC01C80115D036
:10056000892B19F420E030E00CC081E090E09093FA
:10057000010280930002109229031092280321E0C7
:1005800030E0C9011F910F910895EF92FF920F93F0
:100590001F937A018B0182E48093C00088E98093E5
:1005A000C10086E08093C20060E074E284EF99E4C9
:1005B000A80197010E94A5170E941218615070406F
:1005C0007093C5006093C40060E074E284E799E42E
:1005D000A80197010E94A51720E030E040E451E413
:1005E0000E946D196093BA047093BB048093BC049D
:1005F0009093BD042091BA043091BB044091BC0497
:100600005091BD0460E070E08AE793E40E94A51772
:100610000E9412187093B9046093B8047298739A88
:100620008FEF8093C60010922A0410922B0481E071
:1006300090E01F910F91FF90EF90089508958091A1
:100640002B0480932A040895AC01F8947398729A4D
:1006500020E030E011C08091C00085FFFCCF809188
:10066000C00080648093C000FA01E20FF31F808114
:100670008093C6002F5F3F4F2617370764F38091A2
:10068000C00086FFFCCF7298739A7894C9010895D0
:100690001092C1041092C0042091B8043091B904A2
:1006A000265F3F4F280F391F3093BF042093BE04AD
:1006B0000895AF92BF92CF92DF92EF92FF920F9385
:1006C0001F938091C0049091C10401969093C1043E
:1006D0008093C0042091C0043091C1048091BE0475
:1006E0009091BF048217930718F421E030E074C0A2
:1006F000A090BA04B090BB04C090BC04D090BD04DC
:10070000C601B5012BEA3AEA4AEA50E40E946D19A3
:100710007B018C0120E030E040E85FE30E949E17FF
:10072000882314F461E054C0C801B70120E030E030
:100730004FE753E40E94691918160CF045C0C60132
:10074000B50120E030E04AE754E40E94A5175B01C0
:100750006C0120E030E04AE755E40E946D197B010E
:100760008C0120E030E040E85FE30E949E17882380
:100770001CF461E070E024C0C801B70120E03FEF45
:100780004FE757E40E9469191816B4F4C601B50181
:1007900020E030E040E251E40E946D190E941218FE
:1007A00080E991E005C0FC013197F1F7615070409C
:1007B00061157105C1F70EC0C801B7010E9412187A
:1007C000CB010197F1F706C0C801B7010E941218CA
:1007D0006A95F1F720E030E0C9011F910F91FF9079
:1007E000EF90DF90CF90BF90AF90089590912A0442
:1007F00080912B04981719F420E030E017C09091F5
:100800002A0480912B04981738F480912B0490913E
:100810002A04282F30E008C080912B0490912A04EC
:10082000282F30E020503F4F291B3109C90108957E
:100830001F93182FDBDF8F3F910591F0E0912B0480
:10084000F0E0E65DFC4F108380912B048F3F19F49C
:1008500010922B0405C080912B048F5F80932B0492
:100860001F91089590912A0480912B04981711F4F8
:10087000EFEF12C0E0912A04F0E0E65DFC4FE0816A
:1008800080912A048F3F19F410922A0405C08091A8
:100890002A048F5F80932A048E2F0895EF92FF928F
:1008A0000F931F93CF93DF937C01EB0190912A0468
:1008B00080912B04981719F400E010E012C096DF25
:1008C0008C01C817D9070CF48E01C0E0D0E006C037
:1008D000C9DFF701EC0FFD1F80832196C017D107F8
:1008E000BCF3C801DF91CF911F910F91FF90EF9062
:1008F00008951F920F920FB60F920BB60F9211240C
:100900002F933F934F935F936F937F938F939F9317
:10091000AF93BF93EF93FF938091C60089DFFF9160
:10092000EF91BF91AF919F918F917F916F915F9167
:100930004F913F912F910F900BBE0F900FBE0F90D4
:100940001F901895AC0120E030E00CC08091C800E9
:1009500085FFFCCFFA01E20FF31F80818093CE0068
:100960002F5F3F4F261737078CF30895DC019091D6
:10097000AC048091AD04981711F480E00895909133
:10098000AC048091AD04981719F420E030E017C052
:100990009091AC048091AD04981738F48091AD0427
:1009A0009091AC04282F30E008C08091AD04909164
:1009B000AC04282F30E020583F4F291B3109A901F2
:1009C000621773070CF4AB0120E030E020C0909177
:1009D000AC048091AD04981711F49FEF12C0E09120
:1009E000AC04F0E0E45DFB4F90818091AC048F3764
:1009F00019F41092AC0405C08091AC048F5F809311
:100A0000AC04FD01E20FF31F90832F5F3F4F2417CB
:100A10003507ECF2842F08959091AC048091AD04D9
:100A2000981719F420E030E017C09091AC04809141
:100A3000AD04981738F48091AD049091AC04282F40
:100A400030E008C08091AD049091AC04282F30E0D4
:100A500020583F4F291B3109C9010895482F909113
:100A6000AC048091AD049817D1F09091AC048091C2
:100A7000AD04981738F48091AD049091AC04282F00
:100A800030E008C08091AD049091AC04282F30E094
:100A900020583F4F291B31092F37310591F0E09144
:100AA000AD04F0E0E45DFB4F40838091AD048F37EF
:100AB00019F41092AD0408958091AD048F5F809376
:100AC000AD0408959091AC048091AD04981711F491
:100AD000EFEF12C0E091AC04F0E0E45DFB4FE08189
:100AE0008091AC048F3719F41092AC0405C080914A
:100AF000AC048F5F8093AC048E2F08951F920F92E9
:100B00000FB60F920BB60F9211242F933F934F9372
:100B10005F936F937F938F939F93AF93BF93EF9365
:100B2000FF938091CE009ADFFF91EF91BF91AF913B
:100B30009F918F917F916F915F914F913F912F91F5
:100B40000F900BBE0F900FBE0F901F901895DF9364
:100B5000CF930F920F92CDB7DEB7982F8A3099F4CA
:100B60008DE089839A83FE0131969E012D5F3F4F70
:100B70008091C80085FFFCCF81918093CE00E21761
:100B8000F307B1F706C08091C80085FFFCCF9093B2
:100B9000CE0080E090E00F900F90CF91DF9108950C
:100BA0009091AC048091AD049817D1F39091AC046E
:100BB0008091AD04981738F48091AD049091AC0405
:100BC000282F30E008C08091AD049091AC04282F0C
:100BD00030E020583F4F291B3109232B09F3909116
:100BE000AC048091AD04981711F4EFEF15C0E091BB
:100BF000AC04F0E0E45DFB4FE0818091AC048F3702
:100C000019F41092AC0405C08091AC048F5F8093FE
:100C1000AC04ED3009F4EAE08E2F90E008950E94D4
:100C200040189B01AC0160E074E284EF99E40E94FB
:100C3000A5170E9412186150704022E42093C8004A
:100C400028E92093C90026E02093CA002FEF2093C3
:100C5000CE001092AC041092AD04272F332727FD4D
:100C60003A952093CD006093CC007298739A87EAEE
:100C700095E060ED75E00E94651A9093AF04809353
:100C8000AE040895CF92DF92EF92FF92209110026E
:100C9000309111022230310509F45AC024F4213078
:100CA000310551F089C12330310509F4B6C0243033
:100CB000310509F417C180C1843229F582E090E042
:100CC00090931102809310021092B4041092B50414
:100CD0001092B6041092B7041092B0041092B104AE
:100CE0001092B2041092B30410920A0210920B02F6
:100CF00010920C0210920D0287E090E0909309028E
:100D00008093080259C1893769F480910E0290914D
:100D10000F020997B1F48AE090E090930F0280935C
:100D20000E024AC18E3669F480910E0290910F0234
:100D3000069739F485E090E090930F0280930E02BD
:100D40003BC185E090E090930F0280930E0234C186
:100D500090ED980F9A3058F5682F772767FD7095BA
:100D600060537109882777FD8095982F0E9440185D
:100D70006B017C0120E030E040E251E46091B4047A
:100D80007091B5048091B6049091B7040E946D19DA
:100D90009B01AC01C701B6010E943A176093B404ED
:100DA0007093B5048093B6049093B70405C18C3258
:100DB00021F583E090E090931102809310028091DE
:100DC000080290910902089789F48091B4049091E7
:100DD000B504A091B604B091B704B0588093B404A0
:100DE0009093B504A093B604B093B70487E090E065
:100DF0009093090280930802DFC08D3239F488E0B5
:100E000090E09093090280930802D6C081E090E0C0
:100E10009093110280931002CFC090ED980F9A30FA
:100E200058F5682F772767FD7095605371098827FB
:100E300077FD8095982F0E9440186B017C0120E07F
:100E400030E040E251E46091B0047091B1048091CF
:100E5000B2049091B3040E946D199B01AC01C701CB
:100E6000B6010E943A176093B0047093B104809366
:100E7000B2049093B304A0C08C3221F584E090E0DA
:100E800090931102809310028091080290910902C0
:100E9000089789F48091B0049091B104A091B204B4
:100EA000B091B304B0588093B0049093B104A09370
:100EB000B204B093B30487E090E09093090280936A
:100EC00008027AC08D3239F488E090E090930902EC
:100ED0008093080271C081E090E0909311028093AA
:100EE00010026AC090ED980F9A3058F5682F772756
:100EF00067FD709560537109882777FD8095982F5D
:100F00000E9440186B017C0120E030E040E251E497
:100F100060910A0270910B0280910C0290910D0277
:100F20000E946D199B01AC01C701B6010E943A17DE
:100F300060930A0270930B0280930C0290930D024F
:100F40003BC08A3251F580910802909109020897BE
:100F500089F480910A0290910B02A0910C02B09149
:100F60000D02B05880930A0290930B02A0930C02DA
:100F7000B0930D0287E090E09093090280930802FD
:100F800086E090E090930F0280930E0281E090E063
:100F900090931102809310020FC08D3239F488E0D3
:100FA00090E0909309028093080206C081E090E0EF
:100FB000909311028093100280E090E0FF90EF90F8
:100FC000DF90CF900895CF93DF93CDB7DEB7AE9784
:100FD0000FB6F894DEBF0FBECDBF60E071EE80E0CB
:100FE00090E01DDE61E070E080E090E0A2DA61E078
:100FF00070E081E090E09DDA61E070E082E090E0F6
:1010000098DA78942FEF83ED90E321508040904060
:10101000E1F700C0000080E090E0A4E3B3E48D8736
:101020009E87AF87B88B898B9A8BAB8BBC8B8D8B54
:101030009E8BAF8BB88F40E058E06EE170E081E0AE
:1010400090E0FBD969897A898B899C890E940D1867
:10105000882777FD8095982F0E94401828E73BE06D
:1010600046E351E40E946D190E940D18AB016EE138
:1010700070E082E090E0E1D96D897E898F89988D5A
:101080000E940D18882777FD8095982F0E944018A0
:1010900028E73BE046E351E40E946D190E940D18D9
:1010A000AB016EE170E083E090E0C7D98EE192E0A1
:1010B0000E94F21A87E392E00E94F21A4AE0BE010F
:1010C000675E7F4F82E090E00E94421A0E94F21A0F
:1010D0008CE0E2E1F2E0DE01939601900D928A95B8
:1010E000E1F76CE070E0CE0183962CDC0F2EF2EC81
:1010F000AF2EF4E0BF2EF02D0F2EF5E08F2E912CA9
:10110000F02D0F2EF9E06F2E712CF02DF50180815E
:1011100091810E94AF1AB6DD80910E0290910F026C
:101120008630910509F075C020E030E04AE754E4CC
:101130006091B4047091B5048091B6049091B704A5
:101140000E94A517E62E462F572F682F792F498327
:101150005A836B837C8320E030E04AE754E460915B
:10116000B0047091B1048091B2049091B3040E94D4
:10117000A517D62E462F572F682F792F4D835E83C4
:101180006F83788720E030E04AE754E460910A02F8
:1011900070910B0280910C0290910D020E94A51794
:1011A000E62F462F572F682F792F49875A876B874D
:1011B0007C87FA800B811C812D2D3E814F815885C3
:1011C0006E2F7A858B859C853CD0892BE9F081E355
:1011D00090E00E94ED1AC980DA80EB80FC800D81DE
:1011E0001E812F81388549855A856B857C85CE0186
:1011F0000D960E9485168AE290E00E94ED1A709288
:101200000F0260920E0282CF90920F0280920E0225
:101210007DCF8A30910529F490920F0280920E02C0
:1012200075CF20911002309111022130310509F063
:101230006DCF059709F06ACF80E390E00E94ED1A28
:1012400065CF4F925F926F927F928F929F92AF92F3
:10125000BF92CF92DF92EF92FF920F931F93CF93A3
:10126000DF93CDB7DEB72C970FB6F894DEBF0FBE75
:10127000CDBFE982FA820B831C832D833E834F838B
:10128000588769877A878B879C8789849A84AB84FF
:10129000BC8469817A818B819C81CD80DE80EF80E6
:1012A000F8849B01AC010E946D192B013C01A70140
:1012B0009601C701B6010E946D199B01AC01C301E3
:1012C000B2010E943A172CEF3AE740E152E40E9443
:1012D0009E171816D4F026EF38E240E551ECC50110
:1012E000B4010E94691988239CF011E0F12C24E1DB
:1012F0003EEA4FEF50ECC501B4010E949E1718164C
:101300000CF410E0812F9F2D05C080E090E002C01A
:1013100080E090E02C960FB6F894DEBF0FBECDBFF4
:10132000DF91CF911F910F91FF90EF90DF90CF90C1
:10133000BF90AF909F908F907F906F905F904F90F5
:1013400008958F929F92AF92BF92CF92DF92EF92C9
:10135000FF920F931F93CF93DF93EC014A015B0140
:1013600068017901CB01BA019F7720E030E040E8C5
:101370005FE30E94691918160CF049C020E030E0C4
:1013800040E85FE3C501B4010E9439179F7727E168
:1013900037EB41ED58E30E949E1788234CF41882E6
:1013A00019821A821B821C821D821E821F823EC0ED
:1013B00020E030E040E85FE3C501B4010E943A1745
:1013C0009F7727E137EB41ED58E30E949E17882372
:1013D0008CF48BED9FE0A9E4B0E488839983AA8321
:1013E000BB838BED9FE0A9E4B0EC8C839D83AE833F
:1013F000BF831CC080E090E0A0ECBFE788839983A6
:10140000AA83BB838C839D83AE83BF830FC0C5013A
:10141000B4010E942B17688379838A839B83DC0144
:10142000CB01B0588C839D83AE83BF8320E030E036
:1014300040E85FE3C701B6019F770E94691918165B
:101440000CF049C020E030E040E85FE3C701B6019E
:101450000E9439179F7727E137EB41ED58E30E944F
:101460009E1788234CF4188619861A861B861C86BC
:101470001D861E861F863EC020E030E040E85FE308
:10148000C701B6010E943A179F7727E137EB41ED7C
:1014900058E30E949E1788238CF48BED9FE0A9E40B
:1014A000B0E488879987AA87BB878BED9FE0A9E482
:1014B000B0EC8C879D87AE87BF871CC080E090E032
:1014C000A0ECBFE788879987AA87BB878C879D8711
:1014D000AE87BF870FC0C701B6010E942B17688770
:1014E00079878A879B87DC01CB01B0588C879D87E1
:1014F000AE87BF87DF91CF911F910F91FF90EF9043
:10150000DF90CF90BF90AF909F908F9008954F92B3
:101510005F926F927F92BF92CF92DF92EF92FF9293
:101520000F931F93CF93DF93EC01E880F9800A813A
:101530001B812E2D3F2D402F512F6E2D7F2D802F63
:10154000912F0E94181A811155C0BC80CD80DE8079
:10155000CF812B2D3C2D4D2D5C2F6B2D7C2D8D2D7A
:101560009C2F0E94181A81115EC02BED3FE049E4C8
:1015700050E46E2D7F2D802F912F0E94691918162F
:101580006CF42BED3FE049EC50E46E2D7F2D802F65
:10159000912F0E9439172B013C0104C04E2C5F2C67
:1015A000602E712E2BED3FE049E450E46B2D7C2D35
:1015B0008D2D9C2F0E94691918166CF42BED3FE0BD
:1015C00049EC50E46B2D7C2D8D2D9C2F0E943917FA
:1015D0009B01AC0106C08B2D9C2DAD2DBC2F9C0119
:1015E000AD01C301B2019F775F770E949E17181665
:1015F000B4F019C0EC80FD800E811F812E2D3F2D8F
:10160000402F512F6E2D7F2D802F912F0E94181A61
:10161000882349F0E12CF12C00EC1FE704C0EB2CEF
:10162000FC2C0D2D1C2F6E2D7F2D802F912FDF91E7
:10163000CF911F910F91FF90EF90DF90CF90BF90CF
:101640007F906F905F904F9008950F931F93CF936B
:10165000DF9320E030E044E353E40E946D192BED6A
:101660003FE049E450E40E94A5179B01AC0160E013
:1016700070E084E393E40E943917062F172FD82FC8
:10168000C92F20E030E0A9010E949E17882374F43E
:1016900020E030E044EB53E4602F712F8D2F9C2F1E
:1016A0000E943A17062F172FD82FC92F602F712F9E
:1016B0008D2F9C2FDF91CF911F910F9108954F9205
:1016C0005F926F927F928F929F92AF92BF92CF92D2
:1016D000DF92EF92FF920F931F93CF93DF935B0103
:1016E000161617060CF042C0082F192FC0E0D0E0E4
:1016F000412C512C66246A9477247A940F2EFFE7AC
:101700008F2EF02D0F2EFFE79F2EF02DF801C190A8
:10171000D190E190F1908F01262D372D482D592D34
:10172000C701B6010E949E17882334F44C2E5D2E0B
:101730006C2C7D2C8E2C9F2C2196CA15DB0531F745
:101740002FEF3FEF4FE75FE7662D772D882D992D1F
:101750000E9439179F7720E030E040E85FE30E9465
:101760009E17882334F48FEF9FEF05C08FEF9FEF14
:1017700002C0842D952DDF91CF911F910F91FF9085
:10178000EF90DF90CF90BF90AF909F908F907F9021
:101790006F905F904F9008952F923F924F925F927B
:1017A0006F927F928F929F92AF92BF92CF92DF9271
:1017B000EF92FF920F931F93CF93DF9300D01F926E
:1017C000CDB7DEB75B01161617060CF064C0082F04
:1017D000192F1C821B8219821A8222242A943324F4
:1017E0003A940F2EFFE74F2EF02D0F2EFFE75F2EBE
:1017F000F02D66246A9477247A940F2EFFE78F2EBB
:10180000F02D0F2EFFE79F2EF02DF801C190D19003
:10181000E190F1908F01262D372D482D592DC701CC
:10182000B6010E949E1788235CF0222D332D442D93
:10183000552DC701B6010E949E17882334F00DC0B4
:101840006C2C7D2C8E2C9F2C08C0FB81F9838C8105
:101850008A832C2C3D2C4E2C5F2CEB81FC81319605
:10186000FC83EB83EA15FB0581F62FEF3FEF4FE793
:101870005FE7622D732D842D952D0E9439179F7778
:1018800020E030E040E85FE30E949E17882334F4B4
:101890008FEF9FEF05C08FEF9FEF02C089819A8184
:1018A0000F900F900F900F90DF91CF911F910F919C
:1018B000FF90EF90DF90CF90BF90AF909F908F9070
:1018C0007F906F905F904F903F902F900895CF92B0
:1018D000DF92EF92FF920F931F93CF93DF93CDB7D9
:1018E000DEB728970FB6F894DEBF0FBECDBF8C01D0
:1018F0007B0164E070E0E3DE6C0164E070E0C8014D
:101900004BDF2FEFC216D20661F0F601EE0FFF1F7C
:10191000EE0FFF1FEE0DFF1D40815181628173812B
:1019200004C040E050E060EC7FE749835A836B835A
:101930007C838F3F2FEF920769F09C01220F331FAA
:10194000220F331FF701E20FF31F80819181A281E3
:10195000B38104C080E090E0A0ECBFE78D839E835C
:10196000AF83B887CE010196D2DD6FDE28960FB621
:10197000F894DEBF0FBECDBFDF91CF911F910F91C5
:10198000FF90EF90DF90CF9008952F923F924F926B
:101990005F926F927F928F929F92AF92BF92CF92FF
:1019A000DF92EF92FF920F931F93CF93DF93CDB708
:1019B000DEB7C654D1090FB6F894DEBF0FBECDBF57
:1019C000E9A2FAA20BA31CA32DA33EA34FA358A7E1
:1019D00069A77AA78BA79CA789A19AA1ABA1BCA153
:1019E0008BAB9CABADABBEAB89A59AA5ABA5BCA59B
:1019F0008FAB98AFA9AFBAAF2BA93CA94DA95EA9EF
:101A0000CA01B9010E946D196BAF7CAF8DAF9EAF5B
:101A10009B01AC016BA97CA98DA99EA90E946D199F
:101A20006B017C016DA17EA18FA198A59B01AC01EA
:101A30000E946D196FA778AB89AB9AAB2FA938AD0F
:101A400049AD5AADCA01B9010E946D192B013C0183
:101A500021EE36E446E251E46BAD7CAD8DAD9EAD3A
:101A60000E946D1926E534E549EB53E40E943917CD
:101A7000A70196010E9439174B015C0127ED33EB5A
:101A80004DE550E46FA578A989A99AA90E946D191E
:101A90009B01AC01C501B4010E943A174B015C01E6
:101AA00027ED33EB4DE550E4C301B2010E946D19FF
:101AB0009B01AC01C501B4010E943A174B015C01C6
:101AC00020E030E046EA52E46FA578A989A99AA9F6
:101AD0000E943917A30192010E943A179B01AC01A1
:101AE0006BA97CA98DA99EA90E946D199B01AC01CF
:101AF000C501B4010E94391723966CAF7DAF8EAF3C
:101B00009FAF2397D301C201B05827968CAF9DAFEA
:101B1000AEAFBFAF279727ED33EB4DE551E4C701DB
:101B2000B6010E946D199B01AC0160E074E280E295
:101B300096E40E9439174B015C01A70196016BA93D
:101B40007CA98DA99EA90E946D199B01AC01C501BC
:101B5000B4010E943A176B017C012FA538A949A94D
:101B60005AA9CA01B9010E946D199B01AC01C701B4
:101B7000B6010E943A176B017C0120E030E04DE98C
:101B800053E4C301B2010E946D199B01AC01C7016E
:101B9000B6010E9439176B017C01A30192016FA964
:101BA00078AD89AD9AAD0E946D199B01AC016FA90A
:101BB00078AD89AD9AAD0E946D199B01AC01C7014A
:101BC000B6010E943A176B017C012FA538A949A9DB
:101BD0005AA9CA01B9010E943A174B015C0120E0E1
:101BE00030E046ED52E4C301B2010E9439179B0177
:101BF000AC01C501B4010E946D199B01AC01C70184
:101C0000B6010E943A176B017C0127ED33EB4DE5DD
:101C100051E46BA97CA98DA99EA90E946D194B0165
:101C20005C0120E030E04DE153E46FA578A989A97B
:101C30009AA90E943917A30192010E943A179B01A9
:101C4000AC01C501B4010E946D199B01AC01C70133
:101C5000B6010E9439176B017C012BAD3CAD4DAD37
:101C60005EADCA01B9010E943A174B015C0120E048
:101C700030E045E053E46FA578A989A99AA90E94AC
:101C80003917A30192010E943A179B01AC01C501CB
:101C9000B4010E946D199B01AC01C701B6010E94FD
:101CA0003A179B01AC0127966CAD7DAD8EAD9FAD13
:101CB00027970E946D190E94DA194B015C0127EDEC
:101CC00033EB4DED50E46BA97CA98DA99EA90E9430
:101CD0006D199B01AC0160E070E080E491E40E942A
:101CE00039172BAD3CAD4DAD5EAD0E943A17A30147
:101CF00092010E943A1720E030E040E251E40E9455
:101D00006D196B017C01A501940123966CAD7DAD2D
:101D10008EAD9FAD23970E9439179058A701960169
:101D20000E94A5172B013C01A501940123966CADDF
:101D30007DAD8EAD9FAD23970E943A179058A701B5
:101D400096010E94A517AB01BC0193018201CE014F
:101D50000196F7DADE0111961D018E010F5E1F4F0D
:101D60001EA70DA7F101C190D190E190F1901F0144
:101D7000A7019601C701B6010E94181A882351F0E5
:101D80008FEF9FEFAFE7BFE7F80180839183A283D6
:101D9000B38360C0C701B6010E94A2172B013C01AA
:101DA00028ED33EB4DE550E46BA97CA98DA99EA9E4
:101DB0000E9439174B015C0120E030E040EA50E41A
:101DC000C301B2010E946D199B01AC01C501B401B0
:101DD0000E9439174B015C01C701B6010E94D0195E
:101DE00020E030E040EA50E40E946D199B01AC0114
:101DF0006FA978AD89AD9AAD0E9439176B017C014E
:101E0000A5019401C501B4010E946D199B01AC01AB
:101E10006FA578A989A99AA90E943A174B015C017C
:101E2000A7019601C701B6010E946D199B01AC0183
:101E3000C501B4010E943A1720E030E040E153E4CC
:101E40000E943917DC01CB01BF77F80180839183B1
:101E5000A283B3830C5F1F4F8DA59EA5281639065C
:101E600009F080CFBE016F5F7F4FCE0141962FDD1D
:101E7000CA5BDF4F0FB6F894DEBF0FBECDBFDF9158
:101E8000CF911F910F91FF90EF90DF90CF90BF9077
:101E9000AF909F908F907F906F905F904F903F900A
:101EA0002F9008952F923F924F925F926F927F9260
:101EB0008F929F92AF92BF92CF92DF92EF92FF925A
:101EC0000F931F93CF93DF93CDB7DEB7CC55D109D6
:101ED0000FB6F894DEBF0FBECDBFE9A2FAA20BA3E6
:101EE0001CA32DA33EA34FA358A769A77AA78BA72E
:101EF0009CA789A19AA1ABA1BCA18DAB9EABAFABB6
:101F0000B8AF8DA19EA1AFA1B8A589AB9AABABAB81
:101F1000BCAB89A59AA5ABA5BCA589AF9AAFABAF61
:101F2000BCAF2DA93EA94FA958ADCA01B9010E9465
:101F30006D1921966CAF7DAF8EAF9FAF21979B013E
:101F4000AC016DA97EA98FA998AD0E946D194B01B6
:101F50005C0129A93AA94BA95CA9CA01B9010E944F
:101F60006D196DA77EA78FA798AB9B01AC0169A9DE
:101F70007AA98BA99CA90E946D192D966CAF7DAF93
:101F80008EAF9FAF2D9729AD3AAD4BAD5CADCA0179
:101F9000B9010E946D192B013C0120E030E040E4C2
:101FA00051E469A97AA98BA99CA90E946D19299667
:101FB0006CAF7DAF8EAF9FAF299726E534E549E33F
:101FC00054E4C501B40155D76B017C0127ED33EB17
:101FD0004DED5FE321966CAD7DAD8EAD9FAD21974C
:101FE0000E946D1925966CAF7DAF8EAF9FAF259780
:101FF00020E030E040EC50E469A97AA98BA99CA9C3
:1020000038D79B01AC0125966CAD7DAD8EAD9FADF3
:1020100025970E946D199B01AC01C701B60129D714
:102020006B017C012DE932EC4FE053E469A97AA9F8
:102030008BA99CA90E946D199B01AC01C701B60137
:1020400019D76B017C0126E630E94AE851E46DA519
:102050007EA58FA598A90E946D199B01AC01C701AF
:10206000B60108D76B017C0127ED33EB4DED5FE343
:102070002D966CAD7DAD8EAD9FAD2D970E946D19E7
:102080009B01AC01C701B601F4D66B017C0127EDC1
:1020900033EB4DED50E4C301B2010E946D199B0179
:1020A000AC01C701B601E6D66B017C0127ED33EB2D
:1020B0004DED5FE369A97AA98BA99CA90E946D19CE
:1020C000A30192010E946D199B01AC01C701B601E9
:1020D000D0D66B017C0129962CAD3DAD4EAD5FADE8
:1020E000299760E070E086EA92ECC3D62DA53EA564
:1020F0004FA558A9BFD6A3019201BCD69B01AC0144
:102100006DA97EA98FA998AD0E946D199B01AC01A4
:10211000C701B601AFD625966CAF7DAF8EAF9FAF2E
:102120002597A3019201C301B201A4D66B017C01E2
:102130002DA53EA54FA558A9CA01B9019BD6619608
:102140006CAF7DAF8EAF9FAF619727ED33EB4DE561
:1021500050E46DA97EA98FA998AD0E946D1965966E
:102160006CAF7DAF8EAF9FAF6597D301C201B05802
:1021700069968CAF9DAFAEAFBFAF699727ED33EBDC
:102180004DED50E4C501B4010E946D1920E034E228
:1021900040E256E46FD66D966CAF7DAF8EAF9FAFC9
:1021A0006D97A50194016DA97EA98FA998AD0E9494
:1021B0006D199B01AC016D966CAD7DAD8EAD9FAD83
:1021C0006D9758D64B015C0120E030E040E451E4CB
:1021D0002D966CAD7DAD8EAD9FAD2D970E946D1986
:1021E0009B01AC01C501B40144D64B015C012DA596
:1021F0003EA54FA558A9CA01B9010E946D199B01BE
:10220000AC01C501B40136D64B015C0120E030E0E1
:102210004DE953E4C301B2010E946D199B01AC0169
:10222000C501B40126D64B015C01A301920169AD41
:102230007AAD8BAD9CAD0E946D199B01AC0169AD6F
:102240007AAD8BAD9CAD0E946D199B01AC01C501AF
:10225000B40110D64B015C0120E030E04DE153E4C5
:10226000C301B20106D69B01AC0129966CAD7DADD0
:102270008EAD9FAD29970E946D199B01AC01C501E0
:10228000B401F7D54B015C0120E030E04DE753E4A9
:10229000C701B601EED52DA53EA54FA558A90E94B0
:1022A0006D199B01AC01C501B401E4D54B015C0182
:1022B00029962CAD3DAD4EAD5FAD299760E070E045
:1022C00083E693ECD6D561962CAD3DAD4EAD5FADBA
:1022D0006197D0D59B01AC01C701B601CBD5219642
:1022E0002CAD3DAD4EAD5FAD2197F7D79B01AC0155
:1022F000C501B401BFD54B015C0120E030E040E5F1
:1023000051E469A97AA98BA99CA9E7D720E030E01C
:102310004DE953E4AED59B01AC0161966CAD7DAD4A
:102320008EAD9FAD6197A6D59B01AC01C701B601EB
:10233000A1D59B01AC0165966CAD7DAD8EAD9FAD19
:102340006597CBD79B01AC01C501B40193D59B0127
:10235000AC0169966CAD7DAD8EAD9FAD6997BDD773
:102360000E94DA199B01AC0185D56B017C0120E04C
:1023700030E040E452E421966CAD7DAD8EAD9FAD72
:10238000219778D54B015C0120E030E040E850E433
:1023900069A97AA98BA99CA96CD59B01AC0165960A
:1023A0006CAD7DAD8EAD9FAD659797D79B01AC01B0
:1023B000C501B4015ED54B015C0120E030E040EC8A
:1023C00051E469A97AA98BA99CA987D79B01AC0183
:1023D000C501B4014ED54B015C0120E030E040E482
:1023E00050E46DA57EA58FA598A977D79B01AC0178
:1023F000C501B4013FD54B015C0120E030E040E86D
:1024000050E4C301B20169D79B01AC01C501B4011D
:1024100031D520E030E040EA50E45FD74B015C0169
:10242000A701960125966CAD7DAD8EAD9FAD25972C
:1024300020D59058A501940188D52B013C01A70116
:10244000960125966CAD7DAD8EAD9FAD259712D5CD
:102450009058A501940179D5AB01BC01930182018B
:10246000CE0101960E94A109DE0111961D01FE0117
:102470007196FEA7EDA78F01D101CD90DD90ED9073
:10248000FD901D01A7019601C701B601D1D7882390
:1024900059F08FEF9FEFAFE7BFE7EDA5FEA5808373
:1024A0009183A283B3837BC0C701B6014BD54B0197
:1024B0005C0128ED33EB4DED5FE36DA97EA98FA99B
:1024C00098ADD8D42B013C0120E030E040EA50E444
:1024D000C501B40102D720E030E040E05FE3FDD663
:1024E0009B01AC01C301B201C5D42B013C0126E61E
:1024F00030E94AE051E4C501B401EFD69B01AC01DB
:1025000060E070E080EC90ECB4D420E030E040E09B
:102510005FE3E3D69B01AC0169A97AA98BA99CA9C9
:10252000A9D44B015C01C701B6013AD720E030E0E5
:1025300040EA50E4D2D69B01AC0169AD7AAD8BADD7
:102540009CAD97D46B017C01A3019201C301B20140
:10255000C4D62B013C01A5019401C501B401BDD62F
:102560009B01AC01C301B20185D44B015C01A70101
:102570009601C701B601B1D69B01AC01C501B401FA
:1025800079D420E030E040E153E473D4DC01CB01A6
:10259000BF77EDA5FEA580839183A283B3838DA52C
:1025A0009EA504969EA78DA72016310609F064CF3C
:1025B000BE016F5F7F4FCE01419689D9C45ADF4F6C
:1025C0000FB6F894DEBF0FBECDBFDF91CF911F9144
:1025D0000F91FF90EF90DF90CF90BF90AF909F90C2
:1025E0008F907F906F905F904F903F902F900895C5
:1025F0002F923F924F925F926F927F928F929F9213
:10260000AF92BF92CF92DF92EF92FF920F931F9300
:10261000CF93DF93CDB7DEB7CC55D1090FB6F89481
:10262000DEBF0FBECDBFE9A2FAA20BA31CA32DA350
:102630003EA34FA358A769A77AA78BA79CA789A1F8
:102640009AA1ABA1BCA18DAB9EABAFABB8AF8DA136
:102650009EA1AFA1B8A589AB9AABABABBCAB89A52A
:102660009AA5ABA5BCA589AF9AAFABAFBCAF2DA95E
:102670003EA94FA958ADCA01B9012FD621966CAF1A
:102680007DAF8EAF9FAF21979B01AC016DA97EA955
:102690008FA998AD22D64B015C0129A93AA94BA973
:1026A0005CA9CA01B90119D66DA77EA78FA798ABFF
:1026B0009B01AC0169A97AA98BA99CA90ED62D967C
:1026C0006CAF7DAF8EAF9FAF2D9729AD3AAD4BADBF
:1026D0005CADCA01B90101D62B013C0120E030E01C
:1026E00040E451E469A97AA98BA99CA9F6D5299659
:1026F0006CAF7DAF8EAF9FAF299726E534E549E3F8
:1027000054E4C501B401B5D36B017C012DE932EC71
:102710004FE053E469A97AA98BA99CA9DED59B0156
:10272000AC01C701B601A5D36B017C0126E630E9F7
:102730004AE851E46DA57EA58FA598A9CED59B0149
:10274000AC01C701B60196D36B017C0127ED33EBD9
:102750004DED5FE32D966CAD7DAD8EAD9FAD2D97AC
:10276000BCD59B01AC01C701B60184D36B017C01D0
:1027700027ED33EB4DED5FE321966CAD7DAD8EAD76
:102780009FAD2197AAD525966CAF7DAF8EAF9FAF39
:10279000259720E030E040EC50E469A97AA98BA9A4
:1027A0009CA968D39B01AC0125966CAD7DAD8EAD27
:1027B0009FAD259792D59B01AC01C701B6015AD3B5
:1027C0006B017C0127ED33EB4DED50E4C301B20109
:1027D00084D59B01AC01C701B6014CD36B017C01D0
:1027E00027ED33EB4DED5FE369A97AA98BA99CA98D
:1027F00074D5A301920171D59B01AC01C701B6014B
:1028000039D36B017C0120E030E046EA52E429969E
:102810006CAD7DAD8EAD9FAD29972BD32DA53EA57B
:102820004FA558A927D3A301920124D39B01AC0142
:102830006DA97EA98FA998AD50D59B01AC01C701A8
:10284000B60118D325966CAF7DAF8EAF9FAF25979D
:10285000A3019201C301B2010DD36B017C0127EDED
:1028600033EB4DE550E46DA97EA98FA998AD35D520
:1028700061966CAF7DAF8EAF9FAF61972DA53EA5E2
:102880004FA558A9CA01B901F5D265966CAF7DAFC5
:102890008EAF9FAF6597D301C201B05869968CAFD8
:1028A0009DAFAEAFBFAF699727ED33EB4DED50E471
:1028B000C501B40112D520E034E240E256E4DAD298
:1028C0006D966CAF7DAF8EAF9FAF6D97A5019401F4
:1028D0006DA97EA98FA998AD00D59B01AC016D961D
:1028E0006CAD7DAD8EAD9FAD6D97C4D24B015C01DB
:1028F00020E030E040E451E42D966CAD7DAD8EAD2E
:102900009FAD2D97EAD49B01AC01C501B401B2D2B1
:102910004B015C012DA53EA54FA558A9CA01B901DF
:10292000DCD49B01AC01C501B401A4D24B015C0114
:1029300020E030E04DE953E4C301B201CED49B0165
:10294000AC01C501B40195D24B015C01A301920118
:1029500069AD7AAD8BAD9CADC0D49B01AC0169ADC6
:102960007AAD8BAD9CADB9D49B01AC01C501B4016E
:1029700081D24B015C0120E030E04DE153E4C30122
:10298000B20177D29B01AC0129966CAD7DAD8EADC5
:102990009FAD2997A2D49B01AC01C501B4016AD2B5
:1029A0004B015C0120E030E04DE753E4C701B60184
:1029B00060D22DA53EA54FA558A98FD49B01AC018F
:1029C000C501B40157D24B015C0120E030E040E585
:1029D00051E469A97AA98BA99CA97FD49B01AC0178
:1029E00060E070E08DE993EC44D265962CAD3DAD8E
:1029F0004EAD5FAD65973ED29B01AC01C701B601FC
:102A000039D29B01AC0161966CAD7DAD8EAD9FADB1
:102A1000619763D49B01AC01C501B4012BD24B017A
:102A20005C0120E030E043E653E429966CAD7DADD7
:102A30008EAD9FAD29971DD29B01AC0165966CAD03
:102A40007DAD8EAD9FAD659715D29B01AC01C701E1
:102A5000B60110D221962CAD3DAD4EAD5FAD2197A4
:102A60003CD49B01AC01C501B40104D29B01AC0173
:102A700069966CAD7DAD8EAD9FAD69972ED49AD41D
:102A80009B01AC01F7D16B017C0120E030E040E418
:102A900052E421966CAD7DAD8EAD9FAD2197EAD10C
:102AA0004B015C0120E030E040EC51E469A97AA9D7
:102AB0008BA99CA912D49B01AC01C501B401DAD148
:102AC0004B015C0120E030E040E450E46DA57EA5C0
:102AD0008FA598A902D49B01AC01C501B401CAD14C
:102AE0004B015C0120E030E040E850E469A97AA99C
:102AF0008BA99CA9BFD19B01AC0161966CAD7DAD4A
:102B00008EAD9FAD6197E9D39B01AC01C501B401C6
:102B1000B1D14B015C0120E030E040E850E4C3015A
:102B2000B201DBD39B01AC01C501B401A3D120E00C
:102B300030E040EA50E4D1D34B015C01A70196019B
:102B400025966CAD7DAD8EAD9FAD259792D19058F9
:102B5000A5019401FAD12B013C01A701960125960C
:102B60006CAD7DAD8EAD9FAD259784D19058A501FC
:102B70009401EBD1AB01BC0193018201CE0101961E
:102B80000E94A109DE0111961D01FE017196FEA7AA
:102B9000EDA78F01D101CD90DD90ED90FD901D014D
:102BA000A7019601C701B60143D4882359F08FEFDE
:102BB0009FEFAFE7BFE7EDA5FEA580839183A283DA
:102BC000B38379C0C701B601BDD14B015C0128EDCB
:102BD00033EB4DED5FE36DA97EA98FA998AD4AD186
:102BE0002B013C0120E030E040EA50E4C501B40193
:102BF00074D320E030E040E05FE36FD39B01AC0191
:102C0000C301B20137D12B013C0126E630E94AE08D
:102C100051E4C501B40161D320E030E040EC50E460
:102C200029D120E030E040E05FE357D39B01AC01C5
:102C300069A97AA98BA99CA91DD14B015C01C70187
:102C4000B601AED320E030E040EA50E446D39B0129
:102C5000AC0169AD7AAD8BAD9CAD0BD16B017C0144
:102C6000A3019201C301B20138D32B013C01A5019C
:102C70009401C501B40131D39B01AC01C301B20180
:102C8000F9D04B015C01A7019601C701B60125D31C
:102C90009B01AC01C501B401EDD020E030E040E182
:102CA00053E4E7D0DC01CB01BF77EDA5FEA580831F
:102CB0009183A283B3838DA59EA504969EA78DA71D
:102CC0002016310609F066CFBE016F5F7F4FCE013F
:102CD00041960E94670CC45ADF4F0FB6F894DEBFCE
:102CE0000FBECDBFDF91CF911F910F91FF90EF905D
:102CF000DF90CF90BF90AF909F908F907F906F901C
:102D00005F904F903F902F9008956F927F928F9297
:102D10009F92AF92BF92CF92DF92EF92FF920F936A
:102D20001F93CF93DF93CDB7DEB72C970FB6F894F0
:102D3000DEBF0FBECDBF5C01EC2DC982FD2DDA8256
:102D40006E2CEB827F2CFC82802E0D83912E1E83B5
:102D5000C22E2F83D32E3887B42F4987A52F5A87A9
:102D6000862F6B87972F7C87EE2EFF2E062D172D33
:102D7000282D392D4C2D5D2D6B2F7A2F0E94C50CDF
:102D8000F5016083718382839383E980FA800B81EC
:102D90001C812D813E814F81588569857A858B857F
:102DA0009C8580D8F5016483758386839783E98049
:102DB000FA800B811C812D813E814F815885698568
:102DC0007A858B859C8514DC6B017C01F50160871D
:102DD00071878287938760817181828193819B0152
:102DE000AC0126D3811111C0F50164817581868102
:102DF00097819B01AC011CD3811107C0A7019601EB
:102E0000C701B60115D3882389F080E090E0A0ECDB
:102E1000BFE7F50180839183A283B3838483958385
:102E2000A683B78380879187A287B3872C960FB636
:102E3000F894DEBF0FBECDBFDF91CF911F910F91F0
:102E4000FF90EF90DF90CF90BF90AF909F908F90CA
:102E50007F906F9008959F939F774DD10F900020A2
:102E60003AF49058A2EA2AED3FE049E450E413D046
:102E7000E5C15058BB27AA270ED0E0C1A9D130F038
:102E8000AED120F031F49F3F11F41EF479C10EF45D
:102E9000E095E7FB6FC1E92FF3D180F3BA17620722
:102EA00073078407950718F071F49EF50BC20EF4B2
:102EB000E0950B2EBA2FA02D0B01B90190010C014A
:102EC000CA01A0011124FF27591B99F0593F50F462
:102ED000503E68F11A16F040A22F232F342F4427BA
:102EE000585FF3CF469537952795A795F0405395B2
:102EF000C9F77EF41F16BA0B620B730B840BBAF082
:102F00009150A1F0FF0FBB1F661F771F881FC2F7EC
:102F10000EC0BA0F621F731F841F48F48795779500
:102F20006795B795F7959E3F08F0B3CF9395880FB7
:102F300008F09927EE0F979587950895F7D008F434
:102F400081E0089554D1E3958AC10CD077C147D16F
:102F500040F03ED130F021F45F3F19F00BC1511128
:102F6000B2C10EC18DD198F39923C9F35523B1F3A2
:102F7000951B550BBB27AA2762177307840738F0E8
:102F80009F5F5F4F220F331F441FAA1FA9F333D047
:102F90000E2E3AF0E0E830D091505040E695001CFB
:102FA000CAF729D0FE2F27D0660F771F881FBB1FB7
:102FB000261737074807AB07B0E809F0BB0B802D91
:102FC000BF01FF2793585F4F2AF09E3F510568F0DD
:102FD000D1C079C15F3FECF3983EDCF386957795DD
:102FE0006795B795F7959F5FC9F7880F911D9695DF
:102FF000879597F90895E1E0660F771F881FBB1F3B
:10300000621773078407BA0720F0621B730B840BE7
:10301000BA0BEE1F88F7E095089504D06894B111BB
:1030200052C1089535D188F09F5790F0B92F992754
:10303000B751A0F0D1F0660F771F881F991F1AF0C3
:10304000BA95C9F712C0B13081F03CD1B1E0089512
:1030500039C1672F782F8827B85F39F0B93FCCF393
:10306000869577956795B395D9F73EF490958095B9
:10307000709561957F4F8F4F9F4F0895E89409C0D9
:1030800097FB3EF490958095709561957F4F8F4F9B
:103090009F4F9923A9F0F92F96E9BB279395F695B1
:1030A000879577956795B795F111F8CFFAF4BB0F2F
:1030B00011F460FF1BC06F5F7F4F8F4F9F4F16C093
:1030C000882311F096E911C0772321F09EE8872F1D
:1030D000762F05C0662371F096E8862F70E060E0D9
:1030E0002AF09A95660F771F881FDAF7880F969552
:1030F000879597F90895DF93CF931F930F938B01D3
:10310000EC01ECECF0E03FD099D09801AE018B01DE
:10311000EC0160E070E080E89FE3ABDE4BD198010A
:10312000AE010F911F91CF91DF91E3C0990F00087D
:10313000550FAA0BE0E8FEEF16161706E807F90789
:10314000C0F012161306E407F50798F0621B730B24
:10315000840B950B39F40A2661F0232B242B252BA5
:1031600021F408950A2609F4A140A6958FEF811D48
:10317000811D089597F99F6780E870E060E00895E9
:103180009FEF80EC0895DF93CF931F930F93FF92EF
:10319000EF92DF927B018C01689405C0DA2EEF017B
:1031A000A8D0FE01E894A5912591359145915591BE
:1031B000AEF3EF0170DEFE019701A801DA9479F712
:1031C000DF90EF90FF900F911F91CF91DF910895C5
:1031D00000240A94161617061806090608950024F6
:1031E0000A9412161306140605060895C9CF50D086
:1031F000E8F3E894E0E0BB279F57F0F02AED3FE0CA
:1032000049EC06C0EE0FBB0F661F771F881F28F022
:10321000B23A62077307840728F0B25A620B730B45
:10322000840BE3959A9572F7803830F49A95BB0F2A
:10323000661F771F881FD2F7904800C1092E03949C
:10324000000C11F4882352F0BB0F40F4BF2B11F493
:1032500060FF04C06F5F7F4F8F4F9F4F0895EF93C4
:10326000E0FF06C0A2EA2AED3FE049EC5FEB13DE87
:10327000E5DF0F90039401FC9058E4EFF0E0F1C01B
:1032800057FD9058440F551F59F05F3F71F0479517
:10329000880F97FB991F61F09F3F79F087950895FC
:1032A000121613061406551FF2CF4695F1DF08C01B
:1032B000161617061806991FF1CF86957105610538
:1032C00008940895E894BB2766277727CB0197F9E0
:1032D00008952CDF08F48FEF08950BD0AFCF78DF7F
:1032E00028F07DDF18F0952309F044CF49CF112451
:1032F000EACFC6DFA0F3959FD1F3950F50E0551F9D
:10330000629FF001729FBB27F00DB11D639FAA273A
:10331000F00DB11DAA1F649F6627B00DA11D661F89
:10332000829F2227B00DA11D621F739FB00DA11DAA
:10333000621F839FA00D611D221F749F3327A00D64
:10334000611D231F849F600D211D822F762F6A2F00
:1033500011249F5750408AF0E1F088234AF0EE0F85
:10336000FF1FBB1F661F771F881F91505040A9F792
:103370009E3F510570F0FECEA6CF5F3FECF3983E26
:10338000DCF3869577956795B795F795E7959F5FF9
:10339000C1F7FE2B880F911D9695879597F9089593
:1033A0009F9325DF0F9007FCEE5F59CF11F40EF4C9
:1033B000E7CE42C06DDFD0F39923D9F3CEF39F5708
:1033C000550B87FF47D00024A0E640EA90018058C3
:1033D0005695979528F4805C660F771F881F20F01C
:1033E00026173707480730F4621B730B840B20291C
:1033F00031294A2BA69517940794202531254A2771
:1034000058F7660F771F881F20F0261737074807E1
:1034100030F4620B730B840B200D311D411DA09500
:1034200081F7B901842F9158880F96958795089553
:103430007DDE880B990B08959F3F31F0915020F469
:10344000879577956795B795880F911D9695879580
:1034500097F9089591505040660F771F881FD2F753
:1034600008959F938F937F936F93FF93EF939B01A7
:10347000AC0133DFEF91FF9186DE2F913F914F91A9
:103480005F912BCFBB274A3031F4992322F4BDE260
:10349000909581959F4F01C0BB27FB015527AA2717
:1034A000880F991FAA1FA41710F0A41B83955051D1
:1034B000B9F7A05DAA3308F0A95DA193009779F749
:1034C000B111B1931192CB0102C20F931F93CF930D
:1034D000DF93EC018B01009731F46115710519F44C
:1034E00080E090E037C06EE070E081E090E0A7D02F
:1034F000FC010097A9F380E883830115110571F0A1
:103500001387028781E883838091C2049091C3046A
:10351000892B21F4F093C304E093C2042097C9F0EF
:10352000D187C0878381826083838091C404909116
:10353000C504892B71F4F093C504E093C404809111
:10354000C6049091C704892B21F4F093C704E0933B
:10355000C604CF01DF91CF911F910F910895CF93B2
:10356000DF93EC012B8120FF33C026FF0AC02F7BA5
:103570002B838E819F8101969F838E838A8190E029
:1035800029C022FF0FC0E881F9818081992787FD3A
:103590009095009719F420622B831AC03196F98315
:1035A000E8830EC0EA85FB85199597FF09C02B813A
:1035B000019611F480E101C080E2822B8B8308C068
:1035C0002E813F812F5F3F4F3F832E83992702C07B
:1035D0008FEF9FEFDF91CF9108956091C4047091B8
:1035E000C50485C10F931F93CF93DF93E091C4046B
:1035F000F091C504238121FF1BC0EC0100E010E025
:1036000089916091C4047091C504DB011896ED9115
:10361000FC911997882331F01995892B89F30FEFC5
:103620001FEFEECF8AE01995892B11F4C80102C073
:103630008FEF9FEFDF91CF911F910F9108950F931F
:103640001F93CF93DF93869F8001879F100D969FD6
:10365000100D1124C8010DD0EC01009721F0A80134
:1036600060E070E02DD1CE01DF91CF911F910F91DD
:103670000895CF93DF938230910510F482E090E0BB
:10368000E091CA04F091CB0420E030E0A0E0B0E08B
:10369000309739F14081518148175907B8F04817E0
:1036A000590771F482819381109729F013969C93A6
:1036B0008E9312972CC09093CB048093CA0427C09A
:1036C0002115310531F04217530718F0A901DB012C
:1036D00001C0EF019A01BD01DF010280F381E02DFD
:1036E000D7CF21153105F9F0281B390B24303105CE
:1036F00080F48A819B816115710521F0FB01938320
:10370000828304C09093CB048093CA04FE01329656
:1037100044C0FE01E20FF31F8193919322503109BF
:10372000398328833AC02091C8043091C904232BDF
:1037300041F420910402309105023093C904209392
:10374000C80420910202309103022115310541F491
:103750002DB73EB74091060250910702241B350B4E
:10376000E091C804F091C904E217F307A0F42E1BFE
:103770003F0B2817390778F0AC014E5F5F4F2417D5
:10378000350748F04E0F5F1F5093C9044093C8049B
:103790008193919302C0E0E0F0E0CF01DF91CF91FF
:1037A0000895CF93DF93009709F487C0FC01329707
:1037B00013821282C091CA04D091CB04209781F465
:1037C00020813181280F391F8091C8049091C9044C
:1037D0008217930779F5F093C904E093C8046DC08C
:1037E000DE0120E030E0AE17BF0750F412964D9195
:1037F0005C9113979D014115510509F1DA01F3CF51
:10380000B383A28340815181840F951F8A179B0740
:1038100071F48D919C911197840F951F029691835D
:10382000808312968D919C911397938382832115A7
:10383000310529F4F093CB04E093CA043EC0D901CA
:103840001396FC93EE9312974D915D91A40FB51FC3
:10385000EA17FB0779F480819181840F951F029606
:10386000D90111969C938E938281938113969C9398
:103870008E931297E0E0F0E08A819B81009719F027
:10388000FE01EC01F9CFCE01029628813981820F29
:10389000931F2091C8043091C9042817390769F48F
:1038A000309729F41092CB041092CA0402C01382FC
:1038B0001282D093C904C093C804DF91CF910895B8
:1038C000DC0101C06D9341505040E0F70895DC01E8
:1038D000FC01672F71917723E1F7329704C07C9147
:1038E0006D9370836291AE17BF07C8F308950F936D
:1038F0001F93CF93DF93182F092FEB018B8181FD4D
:1039000003C08FEF9FEF20C082FF10C04E815F8108
:103910002C813D81421753077CF4E881F9819F0196
:103920002F5F3F4F39832883108306C0E885F985D0
:10393000812F1995892B29F72E813F812F5F3F4FCA
:103940003F832E83812F902FDF91CF911F910F9175
:063950000895F894FFCF7A
:1039560001000000CC0420000700000008C105009B
:10396600010000008040CDCCAC406666D640496E72
:10397600697469616C697A6174696F6E20636F6DD1
:10398600706C6574652E004275696C6420302E007B
:00000001FF
